{
  "contractName": "OraclizeTest",
  "abi": [
    {
      "constant": true,
      "inputs": [],
      "name": "ETHUSD",
      "outputs": [
        {
          "name": "",
          "type": "string"
        }
      ],
      "payable": false,
      "stateMutability": "view",
      "type": "function"
    },
    {
      "inputs": [],
      "payable": true,
      "stateMutability": "payable",
      "type": "constructor"
    },
    {
      "payable": false,
      "stateMutability": "nonpayable",
      "type": "fallback"
    },
    {
      "anonymous": false,
      "inputs": [
        {
          "indexed": false,
          "name": "description",
          "type": "string"
        }
      ],
      "name": "LogInfo",
      "type": "event"
    },
    {
      "anonymous": false,
      "inputs": [
        {
          "indexed": false,
          "name": "price",
          "type": "string"
        }
      ],
      "name": "LogPriceUpdate",
      "type": "event"
    },
    {
      "anonymous": false,
      "inputs": [
        {
          "indexed": true,
          "name": "_owner",
          "type": "address"
        },
        {
          "indexed": true,
          "name": "_balance",
          "type": "uint256"
        }
      ],
      "name": "LogUpdate",
      "type": "event"
    },
    {
      "constant": false,
      "inputs": [
        {
          "name": "myid",
          "type": "bytes32"
        },
        {
          "name": "result",
          "type": "string"
        }
      ],
      "name": "__callback",
      "outputs": [],
      "payable": false,
      "stateMutability": "nonpayable",
      "type": "function"
    },
    {
      "constant": false,
      "inputs": [
        {
          "name": "id",
          "type": "bytes32"
        },
        {
          "name": "result",
          "type": "string"
        },
        {
          "name": "proof",
          "type": "bytes"
        }
      ],
      "name": "__callback",
      "outputs": [],
      "payable": false,
      "stateMutability": "nonpayable",
      "type": "function"
    },
    {
      "constant": false,
      "inputs": [],
      "name": "getBalance",
      "outputs": [
        {
          "name": "_balance",
          "type": "uint256"
        }
      ],
      "payable": false,
      "stateMutability": "nonpayable",
      "type": "function"
    },
    {
      "constant": false,
      "inputs": [],
      "name": "update",
      "outputs": [],
      "payable": true,
      "stateMutability": "payable",
      "type": "function"
    }
  ],
  "bytecode": "0x6080604081905260058054600160a060020a031916331790819055303191600160a060020a0391909116907fd176e7c6abd789c341ab22cef27aa1fbc7461f5f9d6a6e55faa0b9df32a7051490600090a360008054600160a060020a031916736f485c8bf6fc43ea212e93bbf8ce046c7f1cb475179055620000aa7f1100000000000000000000000000000000000000000000000000000000000000640100000000620000c3810204565b620000bd64010000000062000325810204565b620010f8565b600054600160a060020a03161580620000f95750600054620000f790600160a060020a031664010000000062000561810204565b155b15620001165762000114600064010000000062000565810204565b505b6000809054906101000a9004600160a060020a0316600160a060020a03166338cc48316040518163ffffffff167c0100000000000000000000000000000000000000000000000000000000028152600401602060405180830381600087803b1580156200018257600080fd5b505af115801562000197573d6000803e3d6000fd5b505050506040513d6020811015620001ae57600080fd5b5051600154600160a060020a0390811691161462000280576000809054906101000a9004600160a060020a0316600160a060020a03166338cc48316040518163ffffffff167c0100000000000000000000000000000000000000000000000000000000028152600401602060405180830381600087803b1580156200023257600080fd5b505af115801562000247573d6000803e3d6000fd5b505050506040513d60208110156200025e57600080fd5b505160018054600160a060020a031916600160a060020a039092169190911790555b600154604080517f688dcfd70000000000000000000000000000000000000000000000000000000081527fff00000000000000000000000000000000000000000000000000000000000000841660048201529051600160a060020a039092169163688dcfd79160248082019260009290919082900301818387803b1580156200030857600080fd5b505af11580156200031d573d6000803e3d6000fd5b505050505b50565b60408051808201909152600381527f55524c00000000000000000000000000000000000000000000000000000000006020820152303190620003709064010000000062000580810204565b11156200041857604080516020808252604b908201527f4f7261636c697a6520717565727920776173204e4f542073656e742c20706c65818301527f6173652061646420736f6d652045544820746f20636f76657220666f7220746860608201527f6520717565727920666565000000000000000000000000000000000000000000608082015290516000805160206200227b8339815191529181900360a00190a16200055f565b6040805160208082526035908201527f4f7261636c697a65207175657279207761732073656e742c207374616e64696e818301527f6720627920666f722074686520616e737765722e2e0000000000000000000000606082015290516000805160206200227b8339815191529181900360800190a1620003226040805190810160405280600381526020017f55524c0000000000000000000000000000000000000000000000000000000000815250608060405190810160405280604181526020017f6a736f6e2868747470733a2f2f6170692e636f696e626173652e636f6d2f763281526020017f2f7072696365732f4554482d5553442f73706f74292e646174612e616d6f756e81526020017f74000000000000000000000000000000000000000000000000000000000000008152506200083b640100000000026401000000009004565b565b3b90565b60006200057a64010000000062000c90810204565b92915050565b60008054600160a060020a03161580620005b75750600054620005b590600160a060020a031664010000000062000561810204565b155b15620005d457620005d2600064010000000062000565810204565b505b6000809054906101000a9004600160a060020a0316600160a060020a03166338cc48316040518163ffffffff167c0100000000000000000000000000000000000000000000000000000000028152600401602060405180830381600087803b1580156200064057600080fd5b505af115801562000655573d6000803e3d6000fd5b505050506040513d60208110156200066c57600080fd5b5051600154600160a060020a039081169116146200073e576000809054906101000a9004600160a060020a0316600160a060020a03166338cc48316040518163ffffffff167c0100000000000000000000000000000000000000000000000000000000028152600401602060405180830381600087803b158015620006f057600080fd5b505af115801562000705573d6000803e3d6000fd5b505050506040513d60208110156200071c57600080fd5b505160018054600160a060020a031916600160a060020a039092169190911790555b6001546040517f524f3889000000000000000000000000000000000000000000000000000000008152602060048201818152855160248401528551600160a060020a039094169363524f388993879383926044909201919085019080838360005b83811015620007b95781810151838201526020016200079f565b50505050905090810190601f168015620007e75780820380516001836020036101000a031916815260200191505b5092505050602060405180830381600087803b1580156200080757600080fd5b505af11580156200081c573d6000803e3d6000fd5b505050506040513d60208110156200083357600080fd5b505192915050565b600080548190600160a060020a031615806200087457506000546200087290600160a060020a031664010000000062000561810204565b155b1562000891576200088f600064010000000062000565810204565b505b6000809054906101000a9004600160a060020a0316600160a060020a03166338cc48316040518163ffffffff167c0100000000000000000000000000000000000000000000000000000000028152600401602060405180830381600087803b158015620008fd57600080fd5b505af115801562000912573d6000803e3d6000fd5b505050506040513d60208110156200092957600080fd5b5051600154600160a060020a03908116911614620009fb576000809054906101000a9004600160a060020a0316600160a060020a03166338cc48316040518163ffffffff167c0100000000000000000000000000000000000000000000000000000000028152600401602060405180830381600087803b158015620009ad57600080fd5b505af1158015620009c2573d6000803e3d6000fd5b505050506040513d6020811015620009d957600080fd5b505160018054600160a060020a031916600160a060020a039092169190911790555b6001546040517f524f3889000000000000000000000000000000000000000000000000000000008152602060048201818152875160248401528751600160a060020a039094169363524f388993899383926044909201919085019080838360005b8381101562000a7657818101518382015260200162000a5c565b50505050905090810190601f16801562000aa45780820380516001836020036101000a031916815260200191505b5092505050602060405180830381600087803b15801562000ac457600080fd5b505af115801562000ad9573d6000803e3d6000fd5b505050506040513d602081101562000af057600080fd5b50519050670de0b6b3a764000062030d403a020181111562000b16576000915062000c89565b6001546040517fadf59f99000000000000000000000000000000000000000000000000000000008152600060048201818152606060248401908152885160648501528851600160a060020a039095169463adf59f99948794938b938b939192909160448201916084019060208701908083838b5b8381101562000ba457818101518382015260200162000b8a565b50505050905090810190601f16801562000bd25780820380516001836020036101000a031916815260200191505b50838103825284518152845160209182019186019080838360005b8381101562000c0757818101518382015260200162000bed565b50505050905090810190601f16801562000c355780820380516001836020036101000a031916815260200191505b50955050505050506020604051808303818588803b15801562000c5757600080fd5b505af115801562000c6c573d6000803e3d6000fd5b50505050506040513d602081101562000c8457600080fd5b505191505b5092915050565b60008062000cbb731d3b2638a7cc9f2cb3d298a3da7a90b67e5506ed64010000000062000561810204565b111562000d395760008054600160a060020a031916731d3b2638a7cc9f2cb3d298a3da7a90b67e5506ed17905560408051808201909152600b81527f6574685f6d61696e6e6574000000000000000000000000000000000000000000602082015262000d30906401000000006200103d810204565b5060016200103a565b600062000d6373c03a2615d5efaf5f49f60b7bb6583eaec212fdf164010000000062000561810204565b111562000dd85760008054600160a060020a03191673c03a2615d5efaf5f49f60b7bb6583eaec212fdf117905560408051808201909152600c81527f6574685f726f707374656e330000000000000000000000000000000000000000602082015262000d30906401000000006200103d810204565b600062000e0273b7a07bcf2ba2f2703b24c0691b5278999c59ac7e64010000000062000561810204565b111562000e775760008054600160a060020a03191673b7a07bcf2ba2f2703b24c0691b5278999c59ac7e17905560408051808201909152600981527f6574685f6b6f76616e0000000000000000000000000000000000000000000000602082015262000d30906401000000006200103d810204565b600062000ea173146500cfd35b22e4a392fe0adc06de1a1368ed4864010000000062000561810204565b111562000f165760008054600160a060020a03191673146500cfd35b22e4a392fe0adc06de1a1368ed4817905560408051808201909152600b81527f6574685f72696e6b656279000000000000000000000000000000000000000000602082015262000d30906401000000006200103d810204565b600062000f40736f485c8bf6fc43ea212e93bbf8ce046c7f1cb47564010000000062000561810204565b111562000f76575060008054600160a060020a031916736f485c8bf6fc43ea212e93bbf8ce046c7f1cb47517905560016200103a565b600062000fa07320e12a1f859b3feae5fb2a0a32c18f5a65555bbf64010000000062000561810204565b111562000fd6575060008054600160a060020a0319167320e12a1f859b3feae5fb2a0a32c18f5a65555bbf17905560016200103a565b6000620010007351efaf4c8b3c9afbd5ab9f4bbc82784ab6ef8faa64010000000062000561810204565b111562001036575060008054600160a060020a0319167351efaf4c8b3c9afbd5ab9f4bbc82784ab6ef8faa17905560016200103a565b5060005b90565b80516200105290600290602084019062001056565b5050565b828054600181600116156101000203166002900490600052602060002090601f016020900481019282601f106200109957805160ff1916838001178555620010c9565b82800160010185558215620010c9579182015b82811115620010c9578251825591602001919060010190620010ac565b50620010d7929150620010db565b5090565b6200103a91905b80821115620010d75760008155600101620010e2565b61117380620011086000396000f3006080604052600436106100535763ffffffff60e060020a60003504166312065fe0811461006557806327dc297e1461008c57806338bbfa50146100ec57806373db084414610188578063a2e6204514610212575b34801561005f57600080fd5b50600080fd5b34801561007157600080fd5b5061007a61021a565b60408051918252519081900360200190f35b34801561009857600080fd5b5060408051602060046024803582810135601f81018590048502860185019096528585526100ea9583359536956044949193909101919081908401838280828437509497506102209650505050505050565b005b3480156100f857600080fd5b5060408051602060046024803582810135601f81018590048502860185019096528585526100ea95833595369560449491939091019190819084018382808284375050604080516020601f89358b018035918201839004830284018301909452808352979a9998810197919650918201945092508291508401838280828437509497506102409650505050505050565b34801561019457600080fd5b5061019d61032a565b6040805160208082528351818301528351919283929083019185019080838360005b838110156101d75781810151838201526020016101bf565b50505050905090810190601f1680156102045780820380516001836020036101000a031916815260200191505b509250505060405180910390f35b6100ea6103b8565b30315b90565b60408051600081526020810190915261023c9083908390610240565b5050565b61024861057b565b600160a060020a0316331461025c57600080fd5b815161026f90600690602085019061108f565b5060408051602080825260068054600260001961010060018416150201909116049183018290527f221dd4a47b82d98e10a2a0ebcfdd3314637ca70f414c6987ea6774a907cc06c29390929182918201908490801561030f5780601f106102e45761010080835404028352916020019161030f565b820191906000526020600020905b8154815290600101906020018083116102f257829003601f168201915b50509250505060405180910390a16103256103b8565b505050565b6006805460408051602060026001851615610100026000190190941693909304601f810184900484028201840190925281815292918301828280156103b05780601f10610385576101008083540402835291602001916103b0565b820191906000526020600020905b81548152906001019060200180831161039357829003601f168201915b505050505081565b604080518082019091526003815260ea60020a621554930260208201523031906103e19061076c565b111561047757604080516020808252604b908201527f4f7261636c697a6520717565727920776173204e4f542073656e742c20706c65818301527f6173652061646420736f6d652045544820746f20636f76657220666f72207468606082015260a860020a6a652071756572792066656502608082015290516000805160206111288339815191529181900360a00190a1610579565b6040805160208082526035908201527f4f7261636c697a65207175657279207761732073656e742c207374616e64696e81830152605960020a743390313c903337b9103a34329030b739bbb2b9171702606082015290516000805160206111288339815191529181900360800190a161057760408051908101604052806003815260200160ea60020a6215549302815250608060405190810160405280604181526020017f6a736f6e2868747470733a2f2f6170692e636f696e626173652e636f6d2f763281526020017f2f7072696365732f4554482d5553442f73706f74292e646174612e616d6f756e815260200160fa60020a601d028152506109ba565b505b565b60008054600160a060020a031615806105a657506000546105a490600160a060020a0316610d81565b155b156105b7576105b56000610d85565b505b6000809054906101000a9004600160a060020a0316600160a060020a03166338cc48316040518163ffffffff1660e060020a028152600401602060405180830381600087803b15801561060957600080fd5b505af115801561061d573d6000803e3d6000fd5b505050506040513d602081101561063357600080fd5b5051600154600160a060020a039081169116146106e8576000809054906101000a9004600160a060020a0316600160a060020a03166338cc48316040518163ffffffff1660e060020a028152600401602060405180830381600087803b15801561069c57600080fd5b505af11580156106b0573d6000803e3d6000fd5b505050506040513d60208110156106c657600080fd5b505160018054600160a060020a031916600160a060020a039092169190911790555b600160009054906101000a9004600160a060020a0316600160a060020a031663c281d19e6040518163ffffffff1660e060020a028152600401602060405180830381600087803b15801561073b57600080fd5b505af115801561074f573d6000803e3d6000fd5b505050506040513d602081101561076557600080fd5b5051905090565b60008054600160a060020a03161580610797575060005461079590600160a060020a0316610d81565b155b156107a8576107a66000610d85565b505b6000809054906101000a9004600160a060020a0316600160a060020a03166338cc48316040518163ffffffff1660e060020a028152600401602060405180830381600087803b1580156107fa57600080fd5b505af115801561080e573d6000803e3d6000fd5b505050506040513d602081101561082457600080fd5b5051600154600160a060020a039081169116146108d9576000809054906101000a9004600160a060020a0316600160a060020a03166338cc48316040518163ffffffff1660e060020a028152600401602060405180830381600087803b15801561088d57600080fd5b505af11580156108a1573d6000803e3d6000fd5b505050506040513d60208110156108b757600080fd5b505160018054600160a060020a031916600160a060020a039092169190911790555b60015460405160e060020a63524f3889028152602060048201818152855160248401528551600160a060020a039094169363524f388993879383926044909201919085019080838360005b8381101561093c578181015183820152602001610924565b50505050905090810190601f1680156109695780820380516001836020036101000a031916815260200191505b5092505050602060405180830381600087803b15801561098857600080fd5b505af115801561099c573d6000803e3d6000fd5b505050506040513d60208110156109b257600080fd5b505192915050565b600080548190600160a060020a031615806109e757506000546109e590600160a060020a0316610d81565b155b156109f8576109f66000610d85565b505b6000809054906101000a9004600160a060020a0316600160a060020a03166338cc48316040518163ffffffff1660e060020a028152600401602060405180830381600087803b158015610a4a57600080fd5b505af1158015610a5e573d6000803e3d6000fd5b505050506040513d6020811015610a7457600080fd5b5051600154600160a060020a03908116911614610b29576000809054906101000a9004600160a060020a0316600160a060020a03166338cc48316040518163ffffffff1660e060020a028152600401602060405180830381600087803b158015610add57600080fd5b505af1158015610af1573d6000803e3d6000fd5b505050506040513d6020811015610b0757600080fd5b505160018054600160a060020a031916600160a060020a039092169190911790555b60015460405160e060020a63524f3889028152602060048201818152875160248401528751600160a060020a039094169363524f388993899383926044909201919085019080838360005b83811015610b8c578181015183820152602001610b74565b50505050905090810190601f168015610bb95780820380516001836020036101000a031916815260200191505b5092505050602060405180830381600087803b158015610bd857600080fd5b505af1158015610bec573d6000803e3d6000fd5b505050506040513d6020811015610c0257600080fd5b50519050670de0b6b3a764000062030d403a0201811115610c265760009150610d7a565b60015460405160e060020a63adf59f99028152600060048201818152606060248401908152885160648501528851600160a060020a039095169463adf59f99948794938b938b939192909160448201916084019060208701908083838b5b83811015610c9c578181015183820152602001610c84565b50505050905090810190601f168015610cc95780820380516001836020036101000a031916815260200191505b50838103825284518152845160209182019186019080838360005b83811015610cfc578181015183820152602001610ce4565b50505050905090810190601f168015610d295780820380516001836020036101000a031916815260200191505b50955050505050506020604051808303818588803b158015610d4a57600080fd5b505af1158015610d5e573d6000803e3d6000fd5b50505050506040513d6020811015610d7557600080fd5b505191505b5092915050565b3b90565b6000610d8f610d95565b92915050565b600080610db5731d3b2638a7cc9f2cb3d298a3da7a90b67e5506ed610d81565b1115610e175760008054600160a060020a031916731d3b2638a7cc9f2cb3d298a3da7a90b67e5506ed17905560408051808201909152600b815260aa60020a6a195d1a17db585a5b9b995d026020820152610e0f90611080565b50600161021d565b6000610e3673c03a2615d5efaf5f49f60b7bb6583eaec212fdf1610d81565b1115610e915760008054600160a060020a03191673c03a2615d5efaf5f49f60b7bb6583eaec212fdf117905560408051808201909152600c815260a060020a6b6574685f726f707374656e33026020820152610e0f90611080565b6000610eb073b7a07bcf2ba2f2703b24c0691b5278999c59ac7e610d81565b1115610f085760008054600160a060020a03191673b7a07bcf2ba2f2703b24c0691b5278999c59ac7e179055604080518082019091526009815260b960020a6832ba342fb5b7bb30b7026020820152610e0f90611080565b6000610f2773146500cfd35b22e4a392fe0adc06de1a1368ed48610d81565b1115610f815760008054600160a060020a03191673146500cfd35b22e4a392fe0adc06de1a1368ed4817905560408051808201909152600b815260a860020a6a6574685f72696e6b656279026020820152610e0f90611080565b6000610fa0736f485c8bf6fc43ea212e93bbf8ce046c7f1cb475610d81565b1115610fd4575060008054600160a060020a031916736f485c8bf6fc43ea212e93bbf8ce046c7f1cb475179055600161021d565b6000610ff37320e12a1f859b3feae5fb2a0a32c18f5a65555bbf610d81565b1115611027575060008054600160a060020a0319167320e12a1f859b3feae5fb2a0a32c18f5a65555bbf179055600161021d565b60006110467351efaf4c8b3c9afbd5ab9f4bbc82784ab6ef8faa610d81565b111561107a575060008054600160a060020a0319167351efaf4c8b3c9afbd5ab9f4bbc82784ab6ef8faa179055600161021d565b50600090565b805161023c9060029060208401905b828054600181600116156101000203166002900490600052602060002090601f016020900481019282601f106110d057805160ff19168380011785556110fd565b828001600101855582156110fd579182015b828111156110fd5782518255916020019190600101906110e2565b5061110992915061110d565b5090565b61021d91905b8082111561110957600081556001016111135600fee95ecae0c8f7f0743ec0ad254c78ab75e5ecca9f1ddcd9f11f9a98124b96bca165627a7a72305820defa5fdb0991f3d1fd9bf174c8233df22318769670346b40c4025cdb6eedce040029fee95ecae0c8f7f0743ec0ad254c78ab75e5ecca9f1ddcd9f11f9a98124b96bc",
  "source": "pragma solidity ^0.4.21;\nimport \"installed_contracts/oraclize-api/contracts/usingOraclize.sol\";\n\ncontract OraclizeTest is usingOraclize {\n\n    address owner;\n    string public ETHUSD;\n\n    event LogInfo(string description);\n    event LogPriceUpdate(string price);\n    event LogUpdate(address indexed _owner, uint indexed _balance);\n\n    // Constructor\n    function OraclizeTest()\n    payable\n    public {\n        owner = msg.sender;\n\n        emit LogUpdate(owner, address(this).balance);\n\n        // Replace the next line with your version:\n        OAR = OraclizeAddrResolverI(0x6f485C8BF6fc43eA212E93BBF8ce046C7f1cb475);\n\n        oraclize_setProof(proofType_TLSNotary | proofStorage_IPFS);\n        update();\n    }\n\n    // Fallback function\n    function()\n    public{\n        revert();\n    }\n\n    function __callback(bytes32 id, string result, bytes proof)\n    public {\n        require(msg.sender == oraclize_cbAddress());\n\n        ETHUSD = result;\n        emit LogPriceUpdate(ETHUSD);\n        update();\n    }\n\n    function getBalance()\n    public\n    returns (uint _balance) {\n        return address(this).balance;\n    }\n\n    function update()\n    payable\n    public {\n        // Check if we have enough remaining funds\n        if (oraclize_getPrice(\"URL\") > address(this).balance) {\n            emit LogInfo(\"Oraclize query was NOT sent, please add some ETH to cover for the query fee\");\n        } else {\n            emit LogInfo(\"Oraclize query was sent, standing by for the answer..\");\n\n            // Using XPath to to fetch the right element in the JSON response\n            oraclize_query(\"URL\", \"json(https://api.coinbase.com/v2/prices/ETH-USD/spot).data.amount\");\n        }\n    }\n\n}",
  "sourcePath": "/Users/emilebaizel/Documents/workspace/git/Winning/contracts/OraclizeTest.sol",
  "compiler": {
    "name": "solc",
    "version": "0.4.24+commit.e67f0147.Emscripten.clang"
  },
  "schemaVersion": "2.0.0",
  "updatedAt": "2018-09-14T19:04:39.234Z"
}