{
  "contractName": "Tournament",
  "abi": [
    {
      "constant": true,
      "inputs": [],
      "name": "weiWeigered",
      "outputs": [
        {
          "name": "",
          "type": "uint256"
        }
      ],
      "payable": false,
      "stateMutability": "view",
      "type": "function"
    },
    {
      "constant": true,
      "inputs": [],
      "name": "isWinnerPaid",
      "outputs": [
        {
          "name": "",
          "type": "bool"
        }
      ],
      "payable": false,
      "stateMutability": "view",
      "type": "function"
    },
    {
      "constant": true,
      "inputs": [],
      "name": "homeTeamCode",
      "outputs": [
        {
          "name": "",
          "type": "string"
        }
      ],
      "payable": false,
      "stateMutability": "view",
      "type": "function"
    },
    {
      "constant": true,
      "inputs": [],
      "name": "wagerAmount",
      "outputs": [
        {
          "name": "",
          "type": "uint256"
        }
      ],
      "payable": false,
      "stateMutability": "view",
      "type": "function"
    },
    {
      "constant": true,
      "inputs": [],
      "name": "awayPicker",
      "outputs": [
        {
          "name": "",
          "type": "address"
        }
      ],
      "payable": false,
      "stateMutability": "view",
      "type": "function"
    },
    {
      "constant": true,
      "inputs": [],
      "name": "homeTeamScore",
      "outputs": [
        {
          "name": "",
          "type": "uint256"
        }
      ],
      "payable": false,
      "stateMutability": "view",
      "type": "function"
    },
    {
      "constant": true,
      "inputs": [],
      "name": "homePicker",
      "outputs": [
        {
          "name": "",
          "type": "address"
        }
      ],
      "payable": false,
      "stateMutability": "view",
      "type": "function"
    },
    {
      "constant": true,
      "inputs": [],
      "name": "gameDate",
      "outputs": [
        {
          "name": "",
          "type": "uint256"
        }
      ],
      "payable": false,
      "stateMutability": "view",
      "type": "function"
    },
    {
      "constant": true,
      "inputs": [],
      "name": "awayTeamScore",
      "outputs": [
        {
          "name": "",
          "type": "uint256"
        }
      ],
      "payable": false,
      "stateMutability": "view",
      "type": "function"
    },
    {
      "constant": true,
      "inputs": [],
      "name": "isLocked",
      "outputs": [
        {
          "name": "",
          "type": "bool"
        }
      ],
      "payable": false,
      "stateMutability": "view",
      "type": "function"
    },
    {
      "constant": true,
      "inputs": [],
      "name": "awayTeamCode",
      "outputs": [
        {
          "name": "",
          "type": "string"
        }
      ],
      "payable": false,
      "stateMutability": "view",
      "type": "function"
    },
    {
      "constant": true,
      "inputs": [],
      "name": "isCompleted",
      "outputs": [
        {
          "name": "",
          "type": "bool"
        }
      ],
      "payable": false,
      "stateMutability": "view",
      "type": "function"
    },
    {
      "inputs": [
        {
          "name": "_url",
          "type": "string"
        },
        {
          "name": "isHome",
          "type": "bool"
        },
        {
          "name": "_homeTeamCode",
          "type": "string"
        },
        {
          "name": "_awayTeamCode",
          "type": "string"
        },
        {
          "name": "_gameDate",
          "type": "uint256"
        }
      ],
      "payable": true,
      "stateMutability": "payable",
      "type": "constructor"
    },
    {
      "payable": true,
      "stateMutability": "payable",
      "type": "fallback"
    },
    {
      "anonymous": false,
      "inputs": [
        {
          "indexed": false,
          "name": "entrant",
          "type": "address"
        },
        {
          "indexed": false,
          "name": "ipfsHash",
          "type": "string"
        }
      ],
      "name": "SubmittedEntry",
      "type": "event"
    },
    {
      "anonymous": false,
      "inputs": [
        {
          "indexed": false,
          "name": "winner",
          "type": "address"
        },
        {
          "indexed": false,
          "name": "amount",
          "type": "uint256"
        }
      ],
      "name": "PaidWinner",
      "type": "event"
    },
    {
      "anonymous": false,
      "inputs": [
        {
          "indexed": false,
          "name": "result",
          "type": "string"
        }
      ],
      "name": "ReceivedOraclizeResult",
      "type": "event"
    },
    {
      "anonymous": false,
      "inputs": [
        {
          "indexed": false,
          "name": "description",
          "type": "string"
        }
      ],
      "name": "LogNewOraclizeQuery",
      "type": "event"
    },
    {
      "anonymous": false,
      "inputs": [
        {
          "indexed": false,
          "name": "picker",
          "type": "address"
        },
        {
          "indexed": false,
          "name": "message",
          "type": "string"
        }
      ],
      "name": "TeamSelected",
      "type": "event"
    },
    {
      "constant": false,
      "inputs": [
        {
          "name": "isHome",
          "type": "bool"
        }
      ],
      "name": "submitEntry",
      "outputs": [],
      "payable": true,
      "stateMutability": "payable",
      "type": "function"
    },
    {
      "constant": false,
      "inputs": [
        {
          "name": "myid",
          "type": "bytes32"
        },
        {
          "name": "result",
          "type": "string"
        }
      ],
      "name": "__callback",
      "outputs": [],
      "payable": false,
      "stateMutability": "nonpayable",
      "type": "function"
    },
    {
      "constant": false,
      "inputs": [
        {
          "name": "myid",
          "type": "bytes32"
        },
        {
          "name": "result",
          "type": "string"
        },
        {
          "name": "proof",
          "type": "bytes"
        }
      ],
      "name": "__callback",
      "outputs": [],
      "payable": false,
      "stateMutability": "nonpayable",
      "type": "function"
    },
    {
      "constant": false,
      "inputs": [],
      "name": "updateResults",
      "outputs": [],
      "payable": false,
      "stateMutability": "nonpayable",
      "type": "function"
    }
  ],
  "bytecode": "0x60806040526000600760006101000a81548160ff0219169083151502179055506000600760016101000a81548160ff0219169083151502179055506000600760026101000a81548160ff021916908315150217905550604051620053ad380380620053ad833981018060405281019080805182019291906020018051906020019092919080518201929190602001805182019291906020018051906020019092919050505060008551111515620000b257fe5b600034111515620000bf57fe5b736f485c8bf6fc43ea212e93bbf8ce046c7f1cb4756000806101000a81548173ffffffffffffffffffffffffffffffffffffffff021916908373ffffffffffffffffffffffffffffffffffffffff16021790555033600560006101000a81548173ffffffffffffffffffffffffffffffffffffffff021916908373ffffffffffffffffffffffffffffffffffffffff16021790555084600690805190602001906200016c92919062000587565b506200018784620001d2640100000000026401000000009004565b3460098190555082600e9080519060200190620001a692919062000587565b5081600f9080519060200190620001bf92919062000587565b5080601081905550505050505062000636565b8015620003a957600073ffffffffffffffffffffffffffffffffffffffff16600a60009054906101000a900473ffffffffffffffffffffffffffffffffffffffff1673ffffffffffffffffffffffffffffffffffffffff16141515620002c6576040517f08c379a00000000000000000000000000000000000000000000000000000000081526004018080602001828103825260228152602001807f486f6d65207465616d2068617320616c7265616479206265656e2063686f736581526020017f6e2e00000000000000000000000000000000000000000000000000000000000081525060400191505060405180910390fd5b33600a60006101000a81548173ffffffffffffffffffffffffffffffffffffffff021916908373ffffffffffffffffffffffffffffffffffffffff1602179055507ffbe28f43fde665d51d1f13122bc58afb312621b4e0e15feff40c19dd19923a8e33604051808273ffffffffffffffffffffffffffffffffffffffff1673ffffffffffffffffffffffffffffffffffffffff16815260200180602001828103825260048152602001807f486f6d65000000000000000000000000000000000000000000000000000000008152506020019250505060405180910390a162000574565b600073ffffffffffffffffffffffffffffffffffffffff16600b60009054906101000a900473ffffffffffffffffffffffffffffffffffffffff1673ffffffffffffffffffffffffffffffffffffffff1614151562000496576040517f08c379a00000000000000000000000000000000000000000000000000000000081526004018080602001828103825260228152602001807f41776179207465616d2068617320616c7265616479206265656e2063686f736581526020017f6e2e00000000000000000000000000000000000000000000000000000000000081525060400191505060405180910390fd5b33600b60006101000a81548173ffffffffffffffffffffffffffffffffffffffff021916908373ffffffffffffffffffffffffffffffffffffffff1602179055507ffbe28f43fde665d51d1f13122bc58afb312621b4e0e15feff40c19dd19923a8e33604051808273ffffffffffffffffffffffffffffffffffffffff1673ffffffffffffffffffffffffffffffffffffffff16815260200180602001828103825260048152602001807f41776179000000000000000000000000000000000000000000000000000000008152506020019250505060405180910390a15b3460086000828254019250508190555050565b828054600181600116156101000203166002900490600052602060002090601f016020900481019282601f10620005ca57805160ff1916838001178555620005fb565b82800160010185558215620005fb579182015b82811115620005fa578251825591602001919060010190620005dd565b5b5090506200060a91906200060e565b5090565b6200063391905b808211156200062f57600081600090555060010162000615565b5090565b90565b614d6780620006466000396000f3006080604052600436106100e6576000357c0100000000000000000000000000000000000000000000000000000000900463ffffffff1680630cf3c7fd146100e857806327dc297e14610113578063314141411461018a57806338bbfa50146101b957806341c732e014610276578063464477f41461030657806349de47041461031d5780634dae97f21461034857806352df11cc1461039f5780635d48ca11146103ca5780636d1d92471461042157806389d7d1351461044c578063a4e2d63414610477578063a9ae2187146104a6578063d1ef532d14610536578063fa391c6414610558575b005b3480156100f457600080fd5b506100fd610587565b6040518082815260200191505060405180910390f35b34801561011f57600080fd5b506101886004803603810190808035600019169060200190929190803590602001908201803590602001908080601f016020809104026020016040519081016040528093929190818152602001838380828437820191505050505050919291929050505061058d565b005b34801561019657600080fd5b5061019f610f89565b604051808215151515815260200191505060405180910390f35b3480156101c557600080fd5b506102746004803603810190808035600019169060200190929190803590602001908201803590602001908080601f0160208091040260200160405190810160405280939291908181526020018383808284378201915050505050509192919290803590602001908201803590602001908080601f0160208091040260200160405190810160405280939291908181526020018383808284378201915050505050509192919290505050610f9c565b005b34801561028257600080fd5b5061028b610fa1565b6040518080602001828103825283818151815260200191508051906020019080838360005b838110156102cb5780820151818401526020810190506102b0565b50505050905090810190601f1680156102f85780820380516001836020036101000a031916815260200191505b509250505060405180910390f35b34801561031257600080fd5b5061031b61103f565b005b34801561032957600080fd5b5061033261140d565b6040518082815260200191505060405180910390f35b34801561035457600080fd5b5061035d611413565b604051808273ffffffffffffffffffffffffffffffffffffffff1673ffffffffffffffffffffffffffffffffffffffff16815260200191505060405180910390f35b3480156103ab57600080fd5b506103b4611439565b6040518082815260200191505060405180910390f35b3480156103d657600080fd5b506103df61143f565b604051808273ffffffffffffffffffffffffffffffffffffffff1673ffffffffffffffffffffffffffffffffffffffff16815260200191505060405180910390f35b34801561042d57600080fd5b50610436611465565b6040518082815260200191505060405180910390f35b34801561045857600080fd5b5061046161146b565b6040518082815260200191505060405180910390f35b34801561048357600080fd5b5061048c611471565b604051808215151515815260200191505060405180910390f35b3480156104b257600080fd5b506104bb611484565b6040518080602001828103825283818151815260200191508051906020019080838360005b838110156104fb5780820151818401526020810190506104e0565b50505050905090810190601f1680156105285780820380516001836020036101000a031916815260200191505b509250505060405180910390f35b610556600480360381019080803515159060200190929190505050611522565b005b34801561056457600080fd5b5061056d6116fc565b604051808215151515815260200191505060405180910390f35b60085481565b60006060600061059b614be2565b606080606080600080600760029054906101000a900460ff16151515610629576040517f08c379a000000000000000000000000000000000000000000000000000000000815260040180806020018281038252601d8152602001807f57696e6e65722068617320616c7265616479206265656e20706169642e00000081525060200191505060405180910390fd5b61063161170f565b73ffffffffffffffffffffffffffffffffffffffff163373ffffffffffffffffffffffffffffffffffffffff1614151561066a57600080fd5b7fd6d4d494a3d438ea2d0f395802c2cc70a08a044d5c4736fca281b742c219c9338b6040518080602001828103825283818151815260200191508051906020019080838360005b838110156106cc5780820151818401526020810190506106b1565b50505050905090810190601f1680156106f95780820380516001836020036101000a031916815260200191505b509250505060405180910390a16107118b6005611a6d565b809a50819b50829c5050505088600181518110151561072c57fe5b90602001906020020151965061074b8b88602001518960600151612831565b955088600281518110151561075c57fe5b90602001906020020151965061077b8b88602001518960600151612831565b94506107bc866040805190810160405280600481526020017f6e756c6c00000000000000000000000000000000000000000000000000000000815250612932565b15806108045750610802856040805190810160405280600481526020017f6e756c6c00000000000000000000000000000000000000000000000000000000815250612932565b155b15610877576040517f08c379a000000000000000000000000000000000000000000000000000000000815260040180806020018281038252601a8152602001807f47616d65206973207374696c6c20696e2070726f67726573732e00000000000081525060200191505060405180910390fd5b6001600760016101000a81548160ff0219169083151502179055508860038151811015156108a157fe5b9060200190602002015196506108c08b88602001518960600151612831565b93508860048151811015156108d157fe5b9060200190602002015196506108f08b88602001518960600151612831565b9250610931846040805190810160405280600481526020017f6e756c6c00000000000000000000000000000000000000000000000000000000815250612932565b806109775750610976836040805190810160405280600481526020017f6e756c6c00000000000000000000000000000000000000000000000000000000815250612932565b5b156109ea576040517f08c379a00000000000000000000000000000000000000000000000000000000081526004018080602001828103825260158152602001807f47616d6520686173206e6f7420737461727465642e000000000000000000000081525060200191505060405180910390fd5b6109f384612a0b565b600d81905550610a0283612a0b565b600c819055506008549150600c54600d541115610b1457600b60009054906101000a900473ffffffffffffffffffffffffffffffffffffffff1673ffffffffffffffffffffffffffffffffffffffff166108fc839081150290604051600060405180830381858888f19350505050158015610a81573d6000803e3d6000fd5b507fada201a94c8a85cc9fa3e80313179675b0e321eeb0c0a16324761f34e336f9e1600b60009054906101000a900473ffffffffffffffffffffffffffffffffffffffff1683604051808373ffffffffffffffffffffffffffffffffffffffff1673ffffffffffffffffffffffffffffffffffffffff1681526020018281526020019250505060405180910390a1610f60565b600c54600d541015610d63577fada201a94c8a85cc9fa3e80313179675b0e321eeb0c0a16324761f34e336f9e1600a60009054906101000a900473ffffffffffffffffffffffffffffffffffffffff163073ffffffffffffffffffffffffffffffffffffffff1631604051808373ffffffffffffffffffffffffffffffffffffffff1673ffffffffffffffffffffffffffffffffffffffff1681526020018281526020019250505060405180910390a1600a60009054906101000a900473ffffffffffffffffffffffffffffffffffffffff1673ffffffffffffffffffffffffffffffffffffffff166108fc839081150290604051600060405180830381858888f19350505050158015610c2c573d6000803e3d6000fd5b507fada201a94c8a85cc9fa3e80313179675b0e321eeb0c0a16324761f34e336f9e1600a60009054906101000a900473ffffffffffffffffffffffffffffffffffffffff1683604051808373ffffffffffffffffffffffffffffffffffffffff1673ffffffffffffffffffffffffffffffffffffffff1681526020018281526020019250505060405180910390a17fada201a94c8a85cc9fa3e80313179675b0e321eeb0c0a16324761f34e336f9e1600a60009054906101000a900473ffffffffffffffffffffffffffffffffffffffff163073ffffffffffffffffffffffffffffffffffffffff1631604051808373ffffffffffffffffffffffffffffffffffffffff1673ffffffffffffffffffffffffffffffffffffffff1681526020018281526020019250505060405180910390a1610f5f565b600282811515610d6f57fe5b049050600b60009054906101000a900473ffffffffffffffffffffffffffffffffffffffff1673ffffffffffffffffffffffffffffffffffffffff166108fc829081150290604051600060405180830381858888f19350505050158015610dda573d6000803e3d6000fd5b50600a60009054906101000a900473ffffffffffffffffffffffffffffffffffffffff1673ffffffffffffffffffffffffffffffffffffffff166108fc829081150290604051600060405180830381858888f19350505050158015610e43573d6000803e3d6000fd5b507fada201a94c8a85cc9fa3e80313179675b0e321eeb0c0a16324761f34e336f9e1600b60009054906101000a900473ffffffffffffffffffffffffffffffffffffffff1682604051808373ffffffffffffffffffffffffffffffffffffffff1673ffffffffffffffffffffffffffffffffffffffff1681526020018281526020019250505060405180910390a17fada201a94c8a85cc9fa3e80313179675b0e321eeb0c0a16324761f34e336f9e1600a60009054906101000a900473ffffffffffffffffffffffffffffffffffffffff1682604051808373ffffffffffffffffffffffffffffffffffffffff1673ffffffffffffffffffffffffffffffffffffffff1681526020018281526020019250505060405180910390a15b5b6001600760026101000a81548160ff021916908315150217905550505050505050505050505050565b600760029054906101000a900460ff1681565b505050565b600e8054600181600116156101000203166002900480601f0160208091040260200160405190810160405280929190818152602001828054600181600116156101000203166002900480156110375780601f1061100c57610100808354040283529160200191611037565b820191906000526020600020905b81548152906001019060200180831161101a57829003601f168201915b505050505081565b600560009054906101000a900473ffffffffffffffffffffffffffffffffffffffff1673ffffffffffffffffffffffffffffffffffffffff163373ffffffffffffffffffffffffffffffffffffffff16141515611104576040517f08c379a000000000000000000000000000000000000000000000000000000000815260040180806020018281038252601f8152602001807f55736572206973206e6f742074686520636f6e7472616374206f776e65722e0081525060200191505060405180910390fd5b600760029054906101000a900460ff16151515611189576040517f08c379a000000000000000000000000000000000000000000000000000000000815260040180806020018281038252601d8152602001807f57696e6e65722068617320616c7265616479206265656e20706169642e00000081525060200191505060405180910390fd5b3073ffffffffffffffffffffffffffffffffffffffff16316111df6040805190810160405280600381526020017f55524c0000000000000000000000000000000000000000000000000000000000815250612a1f565b111561129e577f621c2856e3b87f81235f8ac8a22bbb40a0142961960710d00b2b6c380902b57e60405180806020018281038252604b8152602001807f4f7261636c697a6520717565727920776173204e4f542073656e742c20706c6581526020017f6173652061646420736f6d652045544820746f20636f76657220666f7220746881526020017f652071756572792066656500000000000000000000000000000000000000000081525060600191505060405180910390a161140b565b7f621c2856e3b87f81235f8ac8a22bbb40a0142961960710d00b2b6c380902b57e6040518080602001828103825260358152602001807f4f7261636c697a65207175657279207761732073656e742c207374616e64696e81526020017f6720627920666f722074686520616e737765722e2e000000000000000000000081525060400191505060405180910390a16114096040805190810160405280600381526020017f55524c000000000000000000000000000000000000000000000000000000000081525060068054600181600116156101000203166002900480601f0160208091040260200160405190810160405280929190818152602001828054600181600116156101000203166002900480156113fb5780601f106113d0576101008083540402835291602001916113fb565b820191906000526020600020905b8154815290600101906020018083116113de57829003601f168201915b5050505050620249f0612def565b505b565b60095481565b600b60009054906101000a900473ffffffffffffffffffffffffffffffffffffffff1681565b600c5481565b600a60009054906101000a900473ffffffffffffffffffffffffffffffffffffffff1681565b60105481565b600d5481565b600760009054906101000a900460ff1681565b600f8054600181600116156101000203166002900480601f01602080910402602001604051908101604052809291908181526020018280546001816001161561010002031660029004801561151a5780601f106114ef5761010080835404028352916020019161151a565b820191906000526020600020905b8154815290600101906020018083116114fd57829003601f168201915b505050505081565b600954341015151561159c576040517f08c379a00000000000000000000000000000000000000000000000000000000081526004018080602001828103825260188152602001807f496e73756666696369656e742066756e64732073656e742e000000000000000081525060200191505060405180910390fd5b600760009054906101000a900460ff16151515611621576040517f08c379a00000000000000000000000000000000000000000000000000000000081526004018080602001828103825260138152602001807f436f6e7472616374206973206c6f636b65642e0000000000000000000000000081525060200191505060405180910390fd5b61162a8161339f565b600073ffffffffffffffffffffffffffffffffffffffff16600a60009054906101000a900473ffffffffffffffffffffffffffffffffffffffff1673ffffffffffffffffffffffffffffffffffffffff16141580156116d85750600073ffffffffffffffffffffffffffffffffffffffff16600b60009054906101000a900473ffffffffffffffffffffffffffffffffffffffff1673ffffffffffffffffffffffffffffffffffffffff1614155b156116f9576001600760006101000a81548160ff0219169083151502179055505b50565b600760019054906101000a900460ff1681565b6000806000809054906101000a900473ffffffffffffffffffffffffffffffffffffffff1673ffffffffffffffffffffffffffffffffffffffff16148061177f5750600061177d6000809054906101000a900473ffffffffffffffffffffffffffffffffffffffff16613750565b145b156117905761178e600061375b565b505b6000809054906101000a900473ffffffffffffffffffffffffffffffffffffffff1673ffffffffffffffffffffffffffffffffffffffff166338cc48316040518163ffffffff167c0100000000000000000000000000000000000000000000000000000000028152600401602060405180830381600087803b15801561181557600080fd5b505af1158015611829573d6000803e3d6000fd5b505050506040513d602081101561183f57600080fd5b810190808051906020019092919050505073ffffffffffffffffffffffffffffffffffffffff16600160009054906101000a900473ffffffffffffffffffffffffffffffffffffffff1673ffffffffffffffffffffffffffffffffffffffff161415156119a7576000809054906101000a900473ffffffffffffffffffffffffffffffffffffffff1673ffffffffffffffffffffffffffffffffffffffff166338cc48316040518163ffffffff167c0100000000000000000000000000000000000000000000000000000000028152600401602060405180830381600087803b15801561192b57600080fd5b505af115801561193f573d6000803e3d6000fd5b505050506040513d602081101561195557600080fd5b8101908080519060200190929190505050600160006101000a81548173ffffffffffffffffffffffffffffffffffffffff021916908373ffffffffffffffffffffffffffffffffffffffff1602179055505b600160009054906101000a900473ffffffffffffffffffffffffffffffffffffffff1673ffffffffffffffffffffffffffffffffffffffff1663c281d19e6040518163ffffffff167c0100000000000000000000000000000000000000000000000000000000028152600401602060405180830381600087803b158015611a2d57600080fd5b505af1158015611a41573d6000803e3d6000fd5b505050506040513d6020811015611a5757600080fd5b8101908080519060200190929190505050905090565b6000606060006060611a7d614c2b565b60606000806000806000611a8f614be2565b6000808f9a50611a9e8f61376c565b99509950896020015196505b8a518a600001511015612810578a8a60000151815181101515611ac957fe5b9060200101517f010000000000000000000000000000000000000000000000000000000000000090047f0100000000000000000000000000000000000000000000000000000000000000029450607b7f010000000000000000000000000000000000000000000000000000000000000002857effffffffffffffffffffffffffffffffffffffffffffffffffffffffffffff19161480611bad5750605b7f010000000000000000000000000000000000000000000000000000000000000002857effffffffffffffffffffffffffffffffffffffffffffffffffffffffffffff1916145b15611ced578680600101975050611bc48a8a613809565b93509350831515611be25760038960008090509d509d509d5061281f565b7fffffffffffffffffffffffffffffffffffffffffffffffffffffffffffffffff8a60400151141515611c4157888a60400151815181101515611c2157fe5b9060200190602002015160a001805180919060010160ff1660ff16815250505b607b7f010000000000000000000000000000000000000000000000000000000000000002857effffffffffffffffffffffffffffffffffffffffffffffffffffffffffffff191614611c94576002611c97565b60015b83600001906004811115611ca757fe5b90816004811115611cb457fe5b815250508960000151836020018181525050600183604001901515908115158152505060018a60200151038a60400181815250506127fb565b607d7f010000000000000000000000000000000000000000000000000000000000000002857effffffffffffffffffffffffffffffffffffffffffffffffffffffffffffff19161480611d845750605d7f010000000000000000000000000000000000000000000000000000000000000002857effffffffffffffffffffffffffffffffffffffffffffffffffffffffffffff1916145b15611fc457607d7f010000000000000000000000000000000000000000000000000000000000000002857effffffffffffffffffffffffffffffffffffffffffffffffffffffffffffff191614611ddc576002611ddf565b60015b91506000905060018a602001510395505b600086101515611ef3578886815181101515611e0857fe5b90602001906020020151925082604001518015611e2757508260800151155b15611ee557816004811115611e3857fe5b83600001516004811115611e4857fe5b141515611e625760018960008090509d509d509d5061281f565b7fffffffffffffffffffffffffffffffffffffffffffffffffffffffffffffffff8a604001818152505060018a60000151018987815181101515611ea257fe5b90602001906020020151606001818152505060018987815181101515611ec457fe5b90602001906020020151608001901515908115158152505060019050611ef3565b858060019003965050611df0565b801515611f0d5760018960008090509d509d509d5061281f565b5b6000861115611f66578886815181101515611f2557fe5b90602001906020020151925082604001518015611f4457508260800151155b15611f5857858a6040018181525050611f66565b858060019003965050611f0e565b6000861415611fbf578886815181101515611f7d57fe5b90602001906020020151925082604001518015611f9c57508260800151155b15611fbe57856fffffffffffffffffffffffffffffffff168a60400181815250505b5b6127fb565b7f2200000000000000000000000000000000000000000000000000000000000000857effffffffffffffffffffffffffffffffffffffffffffffffffffffffffffff191614156120a3576120198a8a8d6138db565b975060008814151561203757878960008090509d509d509d5061281f565b86806001019750507fffffffffffffffffffffffffffffffffffffffffffffffffffffffffffffffff8a6040015114151561209e57888a6040015181518110151561207e57fe5b9060200190602002015160a001805180919060010160ff1660ff16815250505b6127fb565b7f2000000000000000000000000000000000000000000000000000000000000000857effffffffffffffffffffffffffffffffffffffffffffffffffffffffffffff19161480612137575060117f010000000000000000000000000000000000000000000000000000000000000002857effffffffffffffffffffffffffffffffffffffffffffffffffffffffffffff1916145b80612186575060127f010000000000000000000000000000000000000000000000000000000000000002857effffffffffffffffffffffffffffffffffffffffffffffffffffffffffffff1916145b806121d5575060147f010000000000000000000000000000000000000000000000000000000000000002857effffffffffffffffffffffffffffffffffffffffffffffffffffffffffffff1916145b156121df576127fb565b7f3a00000000000000000000000000000000000000000000000000000000000000857effffffffffffffffffffffffffffffffffffffffffffffffffffffffffffff1916141561223f5760018a60200151038a60400181815250506127fb565b7f2c00000000000000000000000000000000000000000000000000000000000000857effffffffffffffffffffffffffffffffffffffffffffffffffffffffffffff1916141561242f577fffffffffffffffffffffffffffffffffffffffffffffffffffffffffffffffff8a60400151141580156122f35750600260048111156122c557fe5b898b604001518151811015156122d757fe5b906020019060200201516000015160048111156122f057fe5b14155b801561233557506001600481111561230757fe5b898b6040015181518110151561231957fe5b9060200190602002015160000151600481111561233257fe5b14155b1561242a5760018a602001510395505b600086101515612429576002600481111561235c57fe5b898781518110151561236a57fe5b9060200190602002015160000151600481111561238357fe5b14806123c057506001600481111561239757fe5b89878151811015156123a557fe5b906020019060200201516000015160048111156123be57fe5b145b1561241b5788868151811015156123d357fe5b90602001906020020151604001518015612406575088868151811015156123f657fe5b9060200190602002015160800151155b1561241a57858a6040018181525050612429565b5b858060019003965050612345565b5b6127fb565b7f3000000000000000000000000000000000000000000000000000000000000000857effffffffffffffffffffffffffffffffffffffffffffffffffffffffffffff1916101580156124c357507f3900000000000000000000000000000000000000000000000000000000000000857effffffffffffffffffffffffffffffffffffffffffffffffffffffffffffff191611155b8061250f57507f2d00000000000000000000000000000000000000000000000000000000000000857effffffffffffffffffffffffffffffffffffffffffffffffffffffffffffff1916145b8061255b57507f6600000000000000000000000000000000000000000000000000000000000000857effffffffffffffffffffffffffffffffffffffffffffffffffffffffffffff1916145b806125a757507f7400000000000000000000000000000000000000000000000000000000000000857effffffffffffffffffffffffffffffffffffffffffffffffffffffffffffff1916145b806125f357507f6e00000000000000000000000000000000000000000000000000000000000000857effffffffffffffffffffffffffffffffffffffffffffffffffffffffffffff1916145b15612748577fffffffffffffffffffffffffffffffffffffffffffffffffffffffffffffffff8a604001511415156126b357888a6040015181518110151561263757fe5b9060200190602002015192506001600481111561265057fe5b8360000151600481111561266057fe5b148061269a57506003600481111561267457fe5b8360000151600481111561268457fe5b148015612699575060008360a0015160ff1614155b5b156126b25760018960008090509d509d509d5061281f565b5b6126be8a8a8d613ff2565b97506000881415156126dc57878960008090509d509d509d5061281f565b86806001019750507fffffffffffffffffffffffffffffffffffffffffffffffffffffffffffffffff8a6040015114151561274357888a6040015181518110151561272357fe5b9060200190602002015160a001805180919060010160ff1660ff16815250505b6127fb565b60207f010000000000000000000000000000000000000000000000000000000000000002857effffffffffffffffffffffffffffffffffffffffffffffffffffffffffffff1916101580156127e25750607e7f010000000000000000000000000000000000000000000000000000000000000002857effffffffffffffffffffffffffffffffffffffffffffffffffffffffffffff191611155b156127fa5760018960008090509d509d509d5061281f565b5b89600001805180919060010181525050611aaa565b6000898b602001519d509d509d505b50505050505050505050509250925092565b606080606060008692508585036040519080825280601f01601f1916602001820160405280156128705781602001602082028038833980820191505090505b5091508590505b8481101561292557828181518110151561288d57fe5b9060200101517f010000000000000000000000000000000000000000000000000000000000000090047f010000000000000000000000000000000000000000000000000000000000000002828783038151811015156128e857fe5b9060200101907effffffffffffffffffffffffffffffffffffffffffffffffffffffffffffff1916908160001a9053508080600101915050612877565b8193505050509392505050565b6000816040518082805190602001908083835b60208310151561296a5780518252602082019150602081019050602083039250612945565b6001836020036101000a038019825116818451168082178552505050505050905001915050604051809103902060001916836040518082805190602001908083835b6020831015156129d157805182526020820191506020810190506020830392506129ac565b6001836020036101000a03801982511681845116808217855250505050505090500191505060405180910390206000191614905092915050565b6000612a188260006143d4565b9050919050565b6000806000809054906101000a900473ffffffffffffffffffffffffffffffffffffffff1673ffffffffffffffffffffffffffffffffffffffff161480612a8f57506000612a8d6000809054906101000a900473ffffffffffffffffffffffffffffffffffffffff16613750565b145b15612aa057612a9e600061375b565b505b6000809054906101000a900473ffffffffffffffffffffffffffffffffffffffff1673ffffffffffffffffffffffffffffffffffffffff166338cc48316040518163ffffffff167c0100000000000000000000000000000000000000000000000000000000028152600401602060405180830381600087803b158015612b2557600080fd5b505af1158015612b39573d6000803e3d6000fd5b505050506040513d6020811015612b4f57600080fd5b810190808051906020019092919050505073ffffffffffffffffffffffffffffffffffffffff16600160009054906101000a900473ffffffffffffffffffffffffffffffffffffffff1673ffffffffffffffffffffffffffffffffffffffff16141515612cb7576000809054906101000a900473ffffffffffffffffffffffffffffffffffffffff1673ffffffffffffffffffffffffffffffffffffffff166338cc48316040518163ffffffff167c0100000000000000000000000000000000000000000000000000000000028152600401602060405180830381600087803b158015612c3b57600080fd5b505af1158015612c4f573d6000803e3d6000fd5b505050506040513d6020811015612c6557600080fd5b8101908080519060200190929190505050600160006101000a81548173ffffffffffffffffffffffffffffffffffffffff021916908373ffffffffffffffffffffffffffffffffffffffff1602179055505b600160009054906101000a900473ffffffffffffffffffffffffffffffffffffffff1673ffffffffffffffffffffffffffffffffffffffff1663524f3889836040518263ffffffff167c01000000000000000000000000000000000000000000000000000000000281526004018080602001828103825283818151815260200191508051906020019080838360005b83811015612d61578082015181840152602081019050612d46565b50505050905090810190601f168015612d8e5780820380516001836020036101000a031916815260200191505b5092505050602060405180830381600087803b158015612dad57600080fd5b505af1158015612dc1573d6000803e3d6000fd5b505050506040513d6020811015612dd757600080fd5b81019080805190602001909291905050509050919050565b60008060008060009054906101000a900473ffffffffffffffffffffffffffffffffffffffff1673ffffffffffffffffffffffffffffffffffffffff161480612e6157506000612e5f6000809054906101000a900473ffffffffffffffffffffffffffffffffffffffff16613750565b145b15612e7257612e70600061375b565b505b6000809054906101000a900473ffffffffffffffffffffffffffffffffffffffff1673ffffffffffffffffffffffffffffffffffffffff166338cc48316040518163ffffffff167c0100000000000000000000000000000000000000000000000000000000028152600401602060405180830381600087803b158015612ef757600080fd5b505af1158015612f0b573d6000803e3d6000fd5b505050506040513d6020811015612f2157600080fd5b810190808051906020019092919050505073ffffffffffffffffffffffffffffffffffffffff16600160009054906101000a900473ffffffffffffffffffffffffffffffffffffffff1673ffffffffffffffffffffffffffffffffffffffff16141515613089576000809054906101000a900473ffffffffffffffffffffffffffffffffffffffff1673ffffffffffffffffffffffffffffffffffffffff166338cc48316040518163ffffffff167c0100000000000000000000000000000000000000000000000000000000028152600401602060405180830381600087803b15801561300d57600080fd5b505af1158015613021573d6000803e3d6000fd5b505050506040513d602081101561303757600080fd5b8101908080519060200190929190505050600160006101000a81548173ffffffffffffffffffffffffffffffffffffffff021916908373ffffffffffffffffffffffffffffffffffffffff1602179055505b600160009054906101000a900473ffffffffffffffffffffffffffffffffffffffff1673ffffffffffffffffffffffffffffffffffffffff16632ef3accc86856040518363ffffffff167c01000000000000000000000000000000000000000000000000000000000281526004018080602001838152602001828103825284818151815260200191508051906020019080838360005b8381101561313a57808201518184015260208101905061311f565b50505050905090810190601f1680156131675780820380516001836020036101000a031916815260200191505b509350505050602060405180830381600087803b15801561318757600080fd5b505af115801561319b573d6000803e3d6000fd5b505050506040513d60208110156131b157600080fd5b81019080805190602001909291905050509050823a02670de0b6b3a7640000018111156131e45760006001029150613397565b600160009054906101000a900473ffffffffffffffffffffffffffffffffffffffff1673ffffffffffffffffffffffffffffffffffffffff1663c51be90f8260008888886040518663ffffffff167c0100000000000000000000000000000000000000000000000000000000028152600401808581526020018060200180602001848152602001838103835286818151815260200191508051906020019080838360005b838110156132a3578082015181840152602081019050613288565b50505050905090810190601f1680156132d05780820380516001836020036101000a031916815260200191505b50838103825285818151815260200191508051906020019080838360005b838110156133095780820151818401526020810190506132ee565b50505050905090810190601f1680156133365780820380516001836020036101000a031916815260200191505b5096505050505050506020604051808303818588803b15801561335857600080fd5b505af115801561336c573d6000803e3d6000fd5b50505050506040513d602081101561338357600080fd5b810190808051906020019092919050505091505b509392505050565b801561357357600073ffffffffffffffffffffffffffffffffffffffff16600a60009054906101000a900473ffffffffffffffffffffffffffffffffffffffff1673ffffffffffffffffffffffffffffffffffffffff16141515613491576040517f08c379a00000000000000000000000000000000000000000000000000000000081526004018080602001828103825260228152602001807f486f6d65207465616d2068617320616c7265616479206265656e2063686f736581526020017f6e2e00000000000000000000000000000000000000000000000000000000000081525060400191505060405180910390fd5b33600a60006101000a81548173ffffffffffffffffffffffffffffffffffffffff021916908373ffffffffffffffffffffffffffffffffffffffff1602179055507ffbe28f43fde665d51d1f13122bc58afb312621b4e0e15feff40c19dd19923a8e33604051808273ffffffffffffffffffffffffffffffffffffffff1673ffffffffffffffffffffffffffffffffffffffff16815260200180602001828103825260048152602001807f486f6d65000000000000000000000000000000000000000000000000000000008152506020019250505060405180910390a161373d565b600073ffffffffffffffffffffffffffffffffffffffff16600b60009054906101000a900473ffffffffffffffffffffffffffffffffffffffff1673ffffffffffffffffffffffffffffffffffffffff1614151561365f576040517f08c379a00000000000000000000000000000000000000000000000000000000081526004018080602001828103825260228152602001807f41776179207465616d2068617320616c7265616479206265656e2063686f736581526020017f6e2e00000000000000000000000000000000000000000000000000000000000081525060400191505060405180910390fd5b33600b60006101000a81548173ffffffffffffffffffffffffffffffffffffffff021916908373ffffffffffffffffffffffffffffffffffffffff1602179055507ffbe28f43fde665d51d1f13122bc58afb312621b4e0e15feff40c19dd19923a8e33604051808273ffffffffffffffffffffffffffffffffffffffff1673ffffffffffffffffffffffffffffffffffffffff16815260200180602001828103825260048152602001807f41776179000000000000000000000000000000000000000000000000000000008152506020019250505060405180910390a15b3460086000828254019250508190555050565b6000813b9050919050565b60006137656146c8565b9050919050565b613774614c2b565b606061377e614c2b565b6060806040519081016040528060008152602001600081526020017fffffffffffffffffffffffffffffffffffffffffffffffffffffffffffffffff8152509150846040519080825280602002602001820160405280156137f957816020015b6137e6614c4d565b8152602001906001900390816137de5790505b5090508181935093505050915091565b6000613813614be2565b61381b614be2565b8351856020015110151561385357600084600186510381518110151561383d57fe5b90602001906020020151809050925092506138d3565b60c0604051908101604052806000600481111561386c57fe5b81526020016000815260200160001515815260200160008152602001600015158152602001600060ff168152509050808486602001518151811015156138ae57fe5b9060200190602002018190525084602001805180919060010181525050600181925092505b509250929050565b6000806000806138e9614be2565b87600001519350876000018051809190600101815250505b855188600001511015613fd85785886000015181518110151561392057fe5b9060200101517f010000000000000000000000000000000000000000000000000000000000000090047f01000000000000000000000000000000000000000000000000000000000000000292507f2200000000000000000000000000000000000000000000000000000000000000837effffffffffffffffffffffffffffffffffffffffffffffffffffffffffffff191614156139fc576139c18888613809565b915091508115156139df578388600001818152505060039450613fe7565b6139f3816003600187018b60000151614b57565b60009450613fe7565b605c7f010000000000000000000000000000000000000000000000000000000000000002837effffffffffffffffffffffffffffffffffffffffffffffffffffffffffffff1916148015613a57575085516001896000015101105b15613fc257876000018051809190600101815250507f2200000000000000000000000000000000000000000000000000000000000000868960000151815181101515613a9f57fe5b9060200101517f010000000000000000000000000000000000000000000000000000000000000090047f0100000000000000000000000000000000000000000000000000000000000000027effffffffffffffffffffffffffffffffffffffffffffffffffffffffffffff19161480613bb557507f2f00000000000000000000000000000000000000000000000000000000000000868960000151815181101515613b4657fe5b9060200101517f010000000000000000000000000000000000000000000000000000000000000090047f0100000000000000000000000000000000000000000000000000000000000000027effffffffffffffffffffffffffffffffffffffffffffffffffffffffffffff1916145b80613c5d57507f5c00000000000000000000000000000000000000000000000000000000000000868960000151815181101515613bee57fe5b9060200101517f010000000000000000000000000000000000000000000000000000000000000090047f0100000000000000000000000000000000000000000000000000000000000000027effffffffffffffffffffffffffffffffffffffffffffffffffffffffffffff1916145b80613d0557507f6600000000000000000000000000000000000000000000000000000000000000868960000151815181101515613c9657fe5b9060200101517f010000000000000000000000000000000000000000000000000000000000000090047f0100000000000000000000000000000000000000000000000000000000000000027effffffffffffffffffffffffffffffffffffffffffffffffffffffffffffff1916145b80613dad57507f7200000000000000000000000000000000000000000000000000000000000000868960000151815181101515613d3e57fe5b9060200101517f010000000000000000000000000000000000000000000000000000000000000090047f0100000000000000000000000000000000000000000000000000000000000000027effffffffffffffffffffffffffffffffffffffffffffffffffffffffffffff1916145b80613e5557507f6e00000000000000000000000000000000000000000000000000000000000000868960000151815181101515613de657fe5b9060200101517f010000000000000000000000000000000000000000000000000000000000000090047f0100000000000000000000000000000000000000000000000000000000000000027effffffffffffffffffffffffffffffffffffffffffffffffffffffffffffff1916145b80613efd57507f6200000000000000000000000000000000000000000000000000000000000000868960000151815181101515613e8e57fe5b9060200101517f010000000000000000000000000000000000000000000000000000000000000090047f0100000000000000000000000000000000000000000000000000000000000000027effffffffffffffffffffffffffffffffffffffffffffffffffffffffffffff1916145b80613fa557507f7400000000000000000000000000000000000000000000000000000000000000868960000151815181101515613f3657fe5b9060200101517f010000000000000000000000000000000000000000000000000000000000000090047f0100000000000000000000000000000000000000000000000000000000000000027effffffffffffffffffffffffffffffffffffffffffffffffffffffffffffff1916145b15613faf57613fc3565b8388600001818152505060019450613fe7565b5b87600001805180919060010181525050613901565b83886000018181525050600294505b505050509392505050565b6000806000806000614002614be2565b60009450886000015193505b86518960000151101561435f5786896000015181518110151561402d57fe5b9060200101517f010000000000000000000000000000000000000000000000000000000000000090047f01000000000000000000000000000000000000000000000000000000000000000292507f2000000000000000000000000000000000000000000000000000000000000000837effffffffffffffffffffffffffffffffffffffffffffffffffffffffffffff1916148061410b57507f0900000000000000000000000000000000000000000000000000000000000000837effffffffffffffffffffffffffffffffffffffffffffffffffffffffffffff1916145b8061415757507f0a00000000000000000000000000000000000000000000000000000000000000837effffffffffffffffffffffffffffffffffffffffffffffffffffffffffffff1916145b806141a357507f0d00000000000000000000000000000000000000000000000000000000000000837effffffffffffffffffffffffffffffffffffffffffffffffffffffffffffff1916145b806141ef57507f2c00000000000000000000000000000000000000000000000000000000000000837effffffffffffffffffffffffffffffffffffffffffffffffffffffffffffff1916145b8061423e5750607d7f010000000000000000000000000000000000000000000000000000000000000002837effffffffffffffffffffffffffffffffffffffffffffffffffffffffffffff1916145b8061428d5750605d7f010000000000000000000000000000000000000000000000000000000000000002837effffffffffffffffffffffffffffffffffffffffffffffffffffffffffffff1916145b1561429b576001945061435f565b60207f010000000000000000000000000000000000000000000000000000000000000002837effffffffffffffffffffffffffffffffffffffffffffffffffffffffffffff191610806143325750607f7f010000000000000000000000000000000000000000000000000000000000000002837effffffffffffffffffffffffffffffffffffffffffffffffffffffffffffff1916115b1561434a5783896000018181525050600195506143c8565b8860000180518091906001018152505061400e565b8415156143795783896000018181525050600295506143c8565b6143838989613809565b915091508115156143a15783896000018181525050600395506143c8565b6143b2816004868c60000151614b57565b8860000180518091906001900381525050600095505b50505050509392505050565b6000606060008060008693506000925060009150600090505b83518110156146a95760307f010000000000000000000000000000000000000000000000000000000000000002848281518110151561442857fe5b9060200101517f010000000000000000000000000000000000000000000000000000000000000090047f0100000000000000000000000000000000000000000000000000000000000000027effffffffffffffffffffffffffffffffffffffffffffffffffffffffffffff191610158015614540575060397f01000000000000000000000000000000000000000000000000000000000000000284828151811015156144d057fe5b9060200101517f010000000000000000000000000000000000000000000000000000000000000090047f0100000000000000000000000000000000000000000000000000000000000000027effffffffffffffffffffffffffffffffffffffffffffffffffffffffffffff191611155b156145f1578115614563576000861415614559576146a9565b8580600190039650505b600a830292506030848281518110151561457957fe5b9060200101517f010000000000000000000000000000000000000000000000000000000000000090047f0100000000000000000000000000000000000000000000000000000000000000027f01000000000000000000000000000000000000000000000000000000000000009004038301925061469c565b602e7f010000000000000000000000000000000000000000000000000000000000000002848281518110151561462357fe5b9060200101517f010000000000000000000000000000000000000000000000000000000000000090047f0100000000000000000000000000000000000000000000000000000000000000027effffffffffffffffffffffffffffffffffffffffffffffffffffffffffffff1916141561469b57600191505b5b80806001019150506143ed565b60008611156146bb5785600a0a830292505b8294505050505092915050565b6000806146e8731d3b2638a7cc9f2cb3d298a3da7a90b67e5506ed613750565b111561478957731d3b2638a7cc9f2cb3d298a3da7a90b67e5506ed6000806101000a81548173ffffffffffffffffffffffffffffffffffffffff021916908373ffffffffffffffffffffffffffffffffffffffff1602179055506147806040805190810160405280600b81526020017f6574685f6d61696e6e6574000000000000000000000000000000000000000000815250614bc8565b60019050614b54565b60006147a873c03a2615d5efaf5f49f60b7bb6583eaec212fdf1613750565b11156148495773c03a2615d5efaf5f49f60b7bb6583eaec212fdf16000806101000a81548173ffffffffffffffffffffffffffffffffffffffff021916908373ffffffffffffffffffffffffffffffffffffffff1602179055506148406040805190810160405280600c81526020017f6574685f726f707374656e330000000000000000000000000000000000000000815250614bc8565b60019050614b54565b600061486873b7a07bcf2ba2f2703b24c0691b5278999c59ac7e613750565b11156149095773b7a07bcf2ba2f2703b24c0691b5278999c59ac7e6000806101000a81548173ffffffffffffffffffffffffffffffffffffffff021916908373ffffffffffffffffffffffffffffffffffffffff1602179055506149006040805190810160405280600981526020017f6574685f6b6f76616e0000000000000000000000000000000000000000000000815250614bc8565b60019050614b54565b600061492873146500cfd35b22e4a392fe0adc06de1a1368ed48613750565b11156149c95773146500cfd35b22e4a392fe0adc06de1a1368ed486000806101000a81548173ffffffffffffffffffffffffffffffffffffffff021916908373ffffffffffffffffffffffffffffffffffffffff1602179055506149c06040805190810160405280600b81526020017f6574685f72696e6b656279000000000000000000000000000000000000000000815250614bc8565b60019050614b54565b60006149e8736f485c8bf6fc43ea212e93bbf8ce046c7f1cb475613750565b1115614a4b57736f485c8bf6fc43ea212e93bbf8ce046c7f1cb4756000806101000a81548173ffffffffffffffffffffffffffffffffffffffff021916908373ffffffffffffffffffffffffffffffffffffffff16021790555060019050614b54565b6000614a6a7320e12a1f859b3feae5fb2a0a32c18f5a65555bbf613750565b1115614acd577320e12a1f859b3feae5fb2a0a32c18f5a65555bbf6000806101000a81548173ffffffffffffffffffffffffffffffffffffffff021916908373ffffffffffffffffffffffffffffffffffffffff16021790555060019050614b54565b6000614aec7351efaf4c8b3c9afbd5ab9f4bbc82784ab6ef8faa613750565b1115614b4f577351efaf4c8b3c9afbd5ab9f4bbc82784ab6ef8faa6000806101000a81548173ffffffffffffffffffffffffffffffffffffffff021916908373ffffffffffffffffffffffffffffffffffffffff16021790555060019050614b54565b600090505b90565b8284600001906004811115614b6857fe5b90816004811115614b7557fe5b8152505081846020018181525050600184604001901515908115158152505080846060018181525050600184608001901515908115158152505060008460a0019060ff16908160ff168152505050505050565b8060029080519060200190614bde929190614c96565b5050565b60c06040519081016040528060006004811115614bfb57fe5b81526020016000815260200160001515815260200160008152602001600015158152602001600060ff1681525090565b6060604051908101604052806000815260200160008152602001600081525090565b60c06040519081016040528060006004811115614c6657fe5b81526020016000815260200160001515815260200160008152602001600015158152602001600060ff1681525090565b828054600181600116156101000203166002900490600052602060002090601f016020900481019282601f10614cd757805160ff1916838001178555614d05565b82800160010185558215614d05579182015b82811115614d04578251825591602001919060010190614ce9565b5b509050614d129190614d16565b5090565b614d3891905b80821115614d34576000816000905550600101614d1c565b5090565b905600a165627a7a723058209386d1928eb9796dabc9cfd4e5281b24bbee7034587e5ca18ebaab4b88048ec10029",
  "source": "pragma solidity ^0.4.24;\nimport \"installed_contracts/oraclize-api/contracts/usingOraclize.sol\";\nimport \"installed_contracts/jsmnsol-lib/contracts/JsmnSolLib.sol\";\n\ncontract Tournament is usingOraclize {\n\n  event SubmittedEntry(address entrant, string ipfsHash);\n  event PaidWinner(address winner, uint amount);\n  event ReceivedOraclizeResult(string result);\n  event LogNewOraclizeQuery(string description);\n  event TeamSelected(address picker, string message);\n\n  address owner;\n  string oracleURL;\n\n  bool public isLocked = false;\n  bool public isCompleted = false;\n  bool public isWinnerPaid = false;\n\n  uint public weiWeigered;\n  uint public wagerAmount;\n\n  address public homePicker;  // chose the home team\n  address public awayPicker;  // chose the away team\n\n  uint public homeTeamScore;  // home team points\n  uint public awayTeamScore;  // away team points\n\n  string public homeTeamCode; // TODO: set these as events to reduce storage and save $$\n  string public awayTeamCode;\n  uint public gameDate;\n\n  modifier onlyOwner() {\n    require(msg.sender == owner, \"User is not the contract owner.\");\n    _;\n  }\n\n  modifier hasSufficientFunds() {\n    require(msg.value >= wagerAmount, \"Insufficient funds sent.\");\n    _;\n  }\n\n  modifier winnerUnpaid() {\n    require(!isWinnerPaid, \"Winner has already been paid.\");\n    _;\n  }\n\n  constructor(string _url, bool isHome, string _homeTeamCode, string _awayTeamCode, uint _gameDate) payable public {\n    assert(bytes(_url).length > 0);\n    assert(msg.value > 0);\n\n    // READ: When running tests or running locally, deploy ethereum bridge\n    // and set the OAR here\n    OAR = OraclizeAddrResolverI(0x6f485C8BF6fc43eA212E93BBF8ce046C7f1cb475);\n    owner = msg.sender;\n    oracleURL = _url;\n\n    _logEntry(isHome);\n    wagerAmount = msg.value;\n\n    homeTeamCode = _homeTeamCode;\n    awayTeamCode = _awayTeamCode;\n    gameDate = _gameDate;\n\n  }\n\n  function _logEntry(bool isHome) internal {\n    if (isHome) {\n      require(homePicker == address(0), \"Home team has already been chosen.\");\n      homePicker = msg.sender;\n      emit TeamSelected(msg.sender, \"Home\");\n    } else {\n      require(awayPicker == address(0), \"Away team has already been chosen.\");\n      awayPicker = msg.sender;\n      emit TeamSelected(msg.sender, \"Away\"); \n    }\n    weiWeigered += msg.value;\n  }\n\n  function submitEntry(bool isHome) public payable hasSufficientFunds {\n    require(!isLocked, \"Contract is locked.\");\n    _logEntry(isHome);\n    if ((homePicker != address(0)) && (awayPicker != address(0))) {\n      isLocked = true;\n    }\n  }\n\n  // function withdraw() public {\n  //   require(isCompleted || (!isCompleted && !isLocked), \"Contract is locked or has not yet completed.\");\n  //   uint winnings = address(this).balance;\n  //   msg.sender.transfer(winnings);\n  //   emit PaidWinner(msg.sender, winnings);\n  // }\n\n  function compareStrings (string a, string b) internal pure returns (bool){\n    return keccak256(a) == keccak256(b);\n  }\n\n  function __callback(bytes32 myid, string result) winnerUnpaid public {\n    if (msg.sender != oraclize_cbAddress()) revert();\n\n    emit ReceivedOraclizeResult(result);\n\n    // Parse the oraclize query results\n    // https://medium.com/maibornwolff/a-json-parser-for-solidity-9cc73b4b42\n\n    uint returnValue;\n    JsmnSolLib.Token[] memory tokens;\n    uint actualNum;\n\n    (returnValue, tokens, actualNum) = JsmnSolLib.parse(result, 5);\n\n    // First, make sure the game is not still being played\n    JsmnSolLib.Token memory token = tokens[1];\n    string memory currentIntermission = JsmnSolLib.getBytes(result, token.start, token.end);\n\n    token = tokens[2];\n    string memory currentQuarter = JsmnSolLib.getBytes(result, token.start, token.end);\n\n    if (!compareStrings(currentIntermission, \"null\") || !compareStrings(currentQuarter, \"null\")) {\n      revert(\"Game is still in progress.\");\n    } else {\n      isCompleted = true;\n    }\n\n    // Second, get the team's scores and make sure they're not empty\n    token = tokens[3];\n    string memory awayScoreStr = JsmnSolLib.getBytes(result, token.start, token.end);\n\n    token = tokens[4];\n    string memory homeScoreStr = JsmnSolLib.getBytes(result, token.start, token.end);\n\n    if(compareStrings(awayScoreStr, \"null\") || compareStrings(homeScoreStr, \"null\")) {\n      revert(\"Game has not started.\");\n    } else {\n      awayTeamScore = parseInt(awayScoreStr);\n      homeTeamScore = parseInt(homeScoreStr);\n    }\n\n    // Transfer the contract's balance to the winner;\n    // divide across both in the event of a tie\n    uint winnings = weiWeigered;\n    if (awayTeamScore > homeTeamScore) {\n      // transfer to the awayPicker\n      awayPicker.transfer(winnings);\n      emit PaidWinner(awayPicker, winnings);\n    } else if (awayTeamScore < homeTeamScore) {\n      // transfer to the homePicker\n      emit PaidWinner(homePicker, this.balance);\n      homePicker.transfer(winnings);\n      emit PaidWinner(homePicker, winnings);\n      emit PaidWinner(homePicker, this.balance);\n    } else {\n      // transfer to both\n      uint payout = winnings / 2;\n      awayPicker.transfer(payout);\n      homePicker.transfer(payout);\n      emit PaidWinner(awayPicker, payout);\n      emit PaidWinner(homePicker, payout);\n    }\n    isWinnerPaid = true;\n  }\n\n  function updateResults() public onlyOwner winnerUnpaid {\n    if (oraclize_getPrice(\"URL\") > address(this).balance) {\n      emit LogNewOraclizeQuery(\"Oraclize query was NOT sent, please add some ETH to cover for the query fee\");\n    } else {\n      emit LogNewOraclizeQuery(\"Oraclize query was sent, standing by for the answer..\");\n      oraclize_query(\"URL\", oracleURL, 150000);\n    }\n  }\n\n  function() public payable {}\n\n}",
  "sourcePath": "/Users/emilebaizel/Documents/workspace/git/Winning/contracts/Tournament.sol",
  "compiler": {
    "name": "solc",
    "version": "0.4.24+commit.e67f0147.Emscripten.clang"
  },
  "schemaVersion": "2.0.0",
  "updatedAt": "2018-08-15T00:03:42.500Z"
}