{
  "contractName": "Tournament",
  "abi": [
    {
      "constant": true,
      "inputs": [],
      "name": "weiWeigered",
      "outputs": [
        {
          "name": "",
          "type": "uint256"
        }
      ],
      "payable": false,
      "stateMutability": "view",
      "type": "function"
    },
    {
      "constant": true,
      "inputs": [],
      "name": "isWinnerPaid",
      "outputs": [
        {
          "name": "",
          "type": "bool"
        }
      ],
      "payable": false,
      "stateMutability": "view",
      "type": "function"
    },
    {
      "constant": true,
      "inputs": [],
      "name": "homeTeamCode",
      "outputs": [
        {
          "name": "",
          "type": "string"
        }
      ],
      "payable": false,
      "stateMutability": "view",
      "type": "function"
    },
    {
      "constant": true,
      "inputs": [],
      "name": "wagerAmount",
      "outputs": [
        {
          "name": "",
          "type": "uint256"
        }
      ],
      "payable": false,
      "stateMutability": "view",
      "type": "function"
    },
    {
      "constant": true,
      "inputs": [],
      "name": "awayPicker",
      "outputs": [
        {
          "name": "",
          "type": "address"
        }
      ],
      "payable": false,
      "stateMutability": "view",
      "type": "function"
    },
    {
      "constant": true,
      "inputs": [],
      "name": "homeTeamScore",
      "outputs": [
        {
          "name": "",
          "type": "uint256"
        }
      ],
      "payable": false,
      "stateMutability": "view",
      "type": "function"
    },
    {
      "constant": true,
      "inputs": [],
      "name": "homePicker",
      "outputs": [
        {
          "name": "",
          "type": "address"
        }
      ],
      "payable": false,
      "stateMutability": "view",
      "type": "function"
    },
    {
      "constant": true,
      "inputs": [],
      "name": "gameDate",
      "outputs": [
        {
          "name": "",
          "type": "uint256"
        }
      ],
      "payable": false,
      "stateMutability": "view",
      "type": "function"
    },
    {
      "constant": true,
      "inputs": [],
      "name": "awayTeamScore",
      "outputs": [
        {
          "name": "",
          "type": "uint256"
        }
      ],
      "payable": false,
      "stateMutability": "view",
      "type": "function"
    },
    {
      "constant": true,
      "inputs": [],
      "name": "isLocked",
      "outputs": [
        {
          "name": "",
          "type": "bool"
        }
      ],
      "payable": false,
      "stateMutability": "view",
      "type": "function"
    },
    {
      "constant": true,
      "inputs": [],
      "name": "awayTeamCode",
      "outputs": [
        {
          "name": "",
          "type": "string"
        }
      ],
      "payable": false,
      "stateMutability": "view",
      "type": "function"
    },
    {
      "constant": true,
      "inputs": [],
      "name": "isCompleted",
      "outputs": [
        {
          "name": "",
          "type": "bool"
        }
      ],
      "payable": false,
      "stateMutability": "view",
      "type": "function"
    },
    {
      "inputs": [
        {
          "name": "_url",
          "type": "string"
        },
        {
          "name": "isHome",
          "type": "bool"
        },
        {
          "name": "_homeTeamCode",
          "type": "string"
        },
        {
          "name": "_awayTeamCode",
          "type": "string"
        },
        {
          "name": "_gameDate",
          "type": "uint256"
        }
      ],
      "payable": true,
      "stateMutability": "payable",
      "type": "constructor"
    },
    {
      "payable": true,
      "stateMutability": "payable",
      "type": "fallback"
    },
    {
      "anonymous": false,
      "inputs": [
        {
          "indexed": false,
          "name": "entrant",
          "type": "address"
        },
        {
          "indexed": false,
          "name": "ipfsHash",
          "type": "string"
        }
      ],
      "name": "SubmittedEntry",
      "type": "event"
    },
    {
      "anonymous": false,
      "inputs": [
        {
          "indexed": false,
          "name": "winner",
          "type": "address"
        },
        {
          "indexed": false,
          "name": "amount",
          "type": "uint256"
        }
      ],
      "name": "PaidWinner",
      "type": "event"
    },
    {
      "anonymous": false,
      "inputs": [
        {
          "indexed": false,
          "name": "result",
          "type": "string"
        }
      ],
      "name": "ReceivedOraclizeResult",
      "type": "event"
    },
    {
      "anonymous": false,
      "inputs": [
        {
          "indexed": false,
          "name": "description",
          "type": "string"
        }
      ],
      "name": "LogNewOraclizeQuery",
      "type": "event"
    },
    {
      "anonymous": false,
      "inputs": [
        {
          "indexed": false,
          "name": "picker",
          "type": "address"
        },
        {
          "indexed": false,
          "name": "message",
          "type": "string"
        }
      ],
      "name": "TeamSelected",
      "type": "event"
    },
    {
      "constant": false,
      "inputs": [
        {
          "name": "isHome",
          "type": "bool"
        }
      ],
      "name": "submitEntry",
      "outputs": [],
      "payable": true,
      "stateMutability": "payable",
      "type": "function"
    },
    {
      "constant": false,
      "inputs": [
        {
          "name": "myid",
          "type": "bytes32"
        },
        {
          "name": "result",
          "type": "string"
        }
      ],
      "name": "__callback",
      "outputs": [],
      "payable": false,
      "stateMutability": "nonpayable",
      "type": "function"
    },
    {
      "constant": false,
      "inputs": [
        {
          "name": "myid",
          "type": "bytes32"
        },
        {
          "name": "result",
          "type": "string"
        },
        {
          "name": "proof",
          "type": "bytes"
        }
      ],
      "name": "__callback",
      "outputs": [],
      "payable": false,
      "stateMutability": "nonpayable",
      "type": "function"
    },
    {
      "constant": false,
      "inputs": [],
      "name": "updateResults",
      "outputs": [],
      "payable": false,
      "stateMutability": "nonpayable",
      "type": "function"
    },
    {
      "constant": false,
      "inputs": [],
      "name": "kill",
      "outputs": [],
      "payable": false,
      "stateMutability": "nonpayable",
      "type": "function"
    }
  ],
  "bytecode": "0x608060408190526007805462ffffff191690556200335938819003908190833981016040908152815160208301519183015160608401516080850151928501805190959283019391909201916000106200005557fe5b600034116200006057fe5b60058054600160a060020a0319163317905584516200008790600690602088019062000303565b506200009c84640100000000620000da810204565b346009558251620000b590600e90602086019062000303565b508151620000cb90600f90602085019062000303565b5060105550620003a892505050565b8015620001ef57600a54600160a060020a0316156200018057604080517f08c379a000000000000000000000000000000000000000000000000000000000815260206004820152602260248201527f486f6d65207465616d2068617320616c7265616479206265656e2063686f736560448201527f6e2e000000000000000000000000000000000000000000000000000000000000606482015290519081900360840190fd5b600a8054600160a060020a0319163390811790915560408051918252602082018190526004828201527f486f6d6500000000000000000000000000000000000000000000000000000000606083015251600080516020620033398339815191529181900360800190a1620002f8565b600b54600160a060020a0316156200028e57604080517f08c379a000000000000000000000000000000000000000000000000000000000815260206004820152602260248201527f41776179207465616d2068617320616c7265616479206265656e2063686f736560448201527f6e2e000000000000000000000000000000000000000000000000000000000000606482015290519081900360840190fd5b600b8054600160a060020a0319163390811790915560408051918252602082018190526004828201527f4177617900000000000000000000000000000000000000000000000000000000606083015251600080516020620033398339815191529181900360800190a15b506008805434019055565b828054600181600116156101000203166002900490600052602060002090601f016020900481019282601f106200034657805160ff191683800117855562000376565b8280016001018555821562000376579182015b828111156200037657825182559160200191906001019062000359565b506200038492915062000388565b5090565b620003a591905b808211156200038457600081556001016200038f565b90565b612f8180620003b86000396000f3006080604052600436106100d75763ffffffff60e060020a6000350416630cf3c7fd81146100d957806327dc297e14610100578063314141411461015e57806338bbfa501461018757806341c0e1b51461022357806341c732e014610238578063464477f4146102c257806349de4704146102d75780634dae97f2146102ec57806352df11cc1461031d5780635d48ca11146103325780636d1d92471461034757806389d7d1351461035c578063a4e2d63414610371578063a9ae218714610386578063d1ef532d1461039b578063fa391c64146103a8575b005b3480156100e557600080fd5b506100ee6103bd565b60408051918252519081900360200190f35b34801561010c57600080fd5b5060408051602060046024803582810135601f81018590048502860185019096528585526100d79583359536956044949193909101919081908401838280828437509497506103c39650505050505050565b34801561016a57600080fd5b506101736109ab565b604080519115158252519081900360200190f35b34801561019357600080fd5b5060408051602060046024803582810135601f81018590048502860185019096528585526100d795833595369560449491939091019190819084018382808284375050604080516020601f89358b018035918201839004830284018301909452808352979a9998810197919650918201945092508291508401838280828437509497506109ba9650505050505050565b34801561022f57600080fd5b506100d76109bf565b34801561024457600080fd5b5061024d610c4c565b6040805160208082528351818301528351919283929083019185019080838360005b8381101561028757818101518382015260200161026f565b50505050905090810190601f1680156102b45780820380516001836020036101000a031916815260200191505b509250505060405180910390f35b3480156102ce57600080fd5b506100d7610cda565b3480156102e357600080fd5b506100ee610f5f565b3480156102f857600080fd5b50610301610f65565b60408051600160a060020a039092168252519081900360200190f35b34801561032957600080fd5b506100ee610f74565b34801561033e57600080fd5b50610301610f7a565b34801561035357600080fd5b506100ee610f89565b34801561036857600080fd5b506100ee610f8f565b34801561037d57600080fd5b50610173610f95565b34801561039257600080fd5b5061024d610f9e565b6100d76004351515610ff9565b3480156103b457600080fd5b506101736110e7565b60085481565b6000606060006103d1612dc4565b606080606080600080600760029054906101000a900460ff1615151561042f576040805160e560020a62461bcd02815260206004820152601d6024820152600080516020612eb6833981519152604482015290519081900360640190fd5b6104376110f5565b600160a060020a0316331461044b57600080fd5b7fd6d4d494a3d438ea2d0f395802c2cc70a08a044d5c4736fca281b742c219c9338b6040518080602001828103825283818151815260200191508051906020019080838360005b838110156104aa578181015183820152602001610492565b50505050905090810190601f1680156104d75780820380516001836020036101000a031916815260200191505b509250505060405180910390a16104ef8b60056112e7565b8151929c50909a5098508990600190811061050657fe5b9060200190602002015196506105258b88602001518960600151611a4a565b955088600281518110151561053657fe5b9060200190602002015196506105558b88602001518960600151611a4a565b94506105808660408051908101604052806004815260200160e260020a631b9d5b1b02815250611aee565b15806105b257506105b08560408051908101604052806004815260200160e260020a631b9d5b1b02815250611aee565b155b15610607576040805160e560020a62461bcd02815260206004820152601a60248201527f47616d65206973207374696c6c20696e2070726f67726573732e000000000000604482015290519081900360640190fd5b6007805461ff00191661010017905588600381518110151561062557fe5b9060200190602002015196506106448b88602001518960600151611a4a565b935088600481518110151561065557fe5b9060200190602002015196506106748b88602001518960600151611a4a565b925061069f8460408051908101604052806004815260200160e260020a631b9d5b1b02815250611aee565b806106ce57506106ce8360408051908101604052806004815260200160e260020a631b9d5b1b02815250611aee565b1561071e576040805160e560020a62461bcd0281526020600482015260156024820152605960020a7423b0b6b2903430b9903737ba1039ba30b93a32b21702604482015290519081900360640190fd5b61072784611bb0565b600d5561073383611bb0565b600c556008549150600c54600d5411156107bc57600b54604051600160a060020a039091169083156108fc029084906000818181858888f19350505050158015610781573d6000803e3d6000fd5b50600b5460408051600160a060020a039092168252602082018490528051600080516020612ed68339815191529281900390910190a161098c565b600c54600d5410156108a757600a5460408051600160a060020a039092168252303160208301528051600080516020612ed68339815191529281900390910190a1600a54604051600160a060020a039091169083156108fc029084906000818181858888f19350505050158015610837573d6000803e3d6000fd5b50600a5460408051600160a060020a039092168252602082018490528051600080516020612ed68339815191529281900390910190a1600a5460408051600160a060020a039092168252303160208301528051600080516020612ed68339815191529281900390910190a161098c565b50600b546040516002830491600160a060020a0316906108fc8315029083906000818181858888f193505050501580156108e5573d6000803e3d6000fd5b50600a54604051600160a060020a039091169082156108fc029083906000818181858888f19350505050158015610920573d6000803e3d6000fd5b50600b5460408051600160a060020a039092168252602082018390528051600080516020612ed68339815191529281900390910190a1600a5460408051600160a060020a039092168252602082018390528051600080516020612ed68339815191529281900390910190a15b50506007805462ff000019166201000017905550505050505050505050565b60075462010000900460ff1681565b505050565b600554600090600160a060020a03163314610a12576040805160e560020a62461bcd02815260206004820152601f6024820152600080516020612f16833981519152604482015290519081900360640190fd5b600a54600160a060020a031615801590610a365750600b54600160a060020a031615155b15610b2a57600854600290600b54604051929091049250600160a060020a03169082156108fc029083906000818181858888f19350505050158015610a7f573d6000803e3d6000fd5b50600a54604051600160a060020a039091169082156108fc029083906000818181858888f19350505050158015610aba573d6000803e3d6000fd5b50600b5460408051600160a060020a039092168252602082018390528051600080516020612ed68339815191529281900390910190a1600a5460408051600160a060020a039092168252602082018390528051600080516020612ed68339815191529281900390910190a1610c3e565b600a54600160a060020a031615610bb657600a54600854604051600160a060020a039092169181156108fc0291906000818181858888f19350505050158015610b77573d6000803e3d6000fd5b50600a5460085460408051600160a060020a03909316835260208301919091528051600080516020612ed68339815191529281900390910190a1610c3e565b600b54600160a060020a031615610c3e57600b54600854604051600160a060020a039092169181156108fc0291906000818181858888f19350505050158015610c03573d6000803e3d6000fd5b50600b5460085460408051600160a060020a03909316835260208301919091528051600080516020612ed68339815191529281900390910190a15b600554600160a060020a0316ff5b600e805460408051602060026001851615610100026000190190941693909304601f81018490048402820184019092528181529291830182828015610cd25780601f10610ca757610100808354040283529160200191610cd2565b820191906000526020600020905b815481529060010190602001808311610cb557829003601f168201915b505050505081565b600554600160a060020a03163314610d2a576040805160e560020a62461bcd02815260206004820152601f6024820152600080516020612f16833981519152604482015290519081900360640190fd5b60075462010000900460ff1615610d79576040805160e560020a62461bcd02815260206004820152601d6024820152600080516020612eb6833981519152604482015290519081900360640190fd5b604080518082019091526003815260ea60020a62155493026020820152303190610da290611bc3565b1115610e3857604080516020808252604b908201527f4f7261636c697a6520717565727920776173204e4f542073656e742c20706c65818301527f6173652061646420736f6d652045544820746f20636f76657220666f72207468606082015260a860020a6a65207175657279206665650260808201529051600080516020612ef68339815191529181900360a00190a1610f5d565b6040805160208082526035908201527f4f7261636c697a65207175657279207761732073656e742c207374616e64696e81830152605960020a743390313c903337b9103a34329030b739bbb2b917170260608201529051600080516020612ef68339815191529181900360800190a16040805180820182526003815260ea60020a6215549302602080830191909152600680548451601f60026000196101006001861615020190931692909204918201849004840281018401909552808552610f5b9492830182828015610f4d5780601f10610f2257610100808354040283529160200191610f4d565b820191906000526020600020905b815481529060010190602001808311610f3057829003601f168201915b505050505062030d40611e11565b505b565b60095481565b600b54600160a060020a031681565b600c5481565b600a54600160a060020a031681565b60105481565b600d5481565b60075460ff1681565b600f805460408051602060026001851615610100026000190190941693909304601f81018490048402820184019092528181529291830182828015610cd25780601f10610ca757610100808354040283529160200191610cd2565b600954341015611051576040805160e560020a62461bcd0281526020600482015260186024820152604160020a7724b739bab33334b1b4b2b73a10333ab732399039b2b73a1702604482015290519081900360640190fd5b60075460ff16156110a5576040805160e560020a62461bcd0281526020600482015260136024820152606960020a7221b7b73a3930b1ba1034b9903637b1b5b2b21702604482015290519081900360640190fd5b6110ae816121e6565b600a54600160a060020a0316158015906110d25750600b54600160a060020a031615155b15610f5b576007805460ff1916600117905550565b600754610100900460ff1681565b60008054600160a060020a03161580611120575060005461111e90600160a060020a031661237f565b155b156111315761112f6000612383565b505b6000809054906101000a9004600160a060020a0316600160a060020a03166338cc48316040518163ffffffff1660e060020a028152600401602060405180830381600087803b15801561118357600080fd5b505af1158015611197573d6000803e3d6000fd5b505050506040513d60208110156111ad57600080fd5b5051600154600160a060020a03908116911614611262576000809054906101000a9004600160a060020a0316600160a060020a03166338cc48316040518163ffffffff1660e060020a028152600401602060405180830381600087803b15801561121657600080fd5b505af115801561122a573d6000803e3d6000fd5b505050506040513d602081101561124057600080fd5b505160018054600160a060020a031916600160a060020a039092169190911790555b600160009054906101000a9004600160a060020a0316600160a060020a031663c281d19e6040518163ffffffff1660e060020a028152600401602060405180830381600087803b1580156112b557600080fd5b505af11580156112c9573d6000803e3d6000fd5b505050506040513d60208110156112df57600080fd5b505190505b90565b60006060600060606112f7612dfb565b60606000806000806000611309612dc4565b6000808f9a506113188f61238d565b99509950896020015196505b8a518a511015611a295789518b518c9190811061133d57fe5b016020015160f860020a9081900402945060f860020a607b02600160f860020a03198616148061137d575060f860020a605b02600160f860020a03198616145b1561144d576001909601956113928a8a612409565b935093508315156113af5760039d50979b5060009a508b97611a38565b60408a0151600019146113e757888a604001518151811015156113ce57fe5b602090810291909101015160a001805160010160ff1690525b60f860020a607b02600160f860020a0319861614611406576002611409565b60015b8390600481111561141657fe5b9081600481111561142357fe5b90525089516020808501919091526001604080860191909152908b015160001901908b0152611a1d565b60f860020a607d02600160f860020a03198616148061147c575060f860020a605d02600160f860020a03198616145b1561163c5760f860020a607d02600160f860020a03198616146114a05760026114a3565b60015b91506000905060018a602001510395505b600086106115825788868151811015156114ca57fe5b906020019060200201519250826040015180156114e957508260800151155b15611576578160048111156114fa57fe5b8351600481111561150757fe5b1461151e5760019d50979b5060009a508b97611a38565b60001960408b0152895189516001909101908a908890811061153c57fe5b602090810290910101516060015288516001908a908890811061155b57fe5b60209081029091010151901515608090910152506001611582565b600019909501946114b4565b80151561159b5760019d50979b5060009a508b97611a38565b60008611156115ee5788868151811015156115b257fe5b906020019060200201519250826040015180156115d157508260800151155b156115e25760408a018690526115ee565b6000199095019461159b565b85151561163757888681518110151561160357fe5b9060200190602002015192508260400151801561162257508260800151155b15611637576001608060020a03861660408b01525b611a1d565b60f960020a601102600160f860020a0319861614156116bc576116608a8a8d6124ba565b9750871561167a57878960008090509d509d509d50611a38565b60408a01516001909701966000191461163757888a6040015181518110151561169f57fe5b602090810291909101015160a001805160010160ff169052611a1d565b60fd60020a600160f860020a0319861614806116e8575060f860020a601102600160f860020a03198616145b80611703575060f960020a600902600160f860020a03198616145b8061171e575060fa60020a600502600160f860020a03198616145b1561172857611a1d565b60f960020a601d02600160f860020a0319861614156117545760208a01516000190160408b0152611a1d565b60fa60020a600b02600160f860020a0319861614156118af578960400151600019141580156117ab57506002898b6040015181518110151561179257fe5b602090810290910101515160048111156117a857fe5b14155b80156117df57506001898b604001518151811015156117c657fe5b602090810290910101515160048111156117dc57fe5b14155b156116375760018a602001510395505b60008610611637576002898781518110151561180757fe5b6020908102909101015151600481111561181d57fe5b148061184c57506001898781518110151561183457fe5b6020908102909101015151600481111561184a57fe5b145b156118a357888681518110151561185f57fe5b906020019060200201516040015180156118925750888681518110151561188257fe5b9060200190602002015160800151155b156118a35760408a01869052611637565b600019909501946117ef565b60fc60020a600302600160f860020a03198616108015906118e1575060f860020a603902600160f860020a0319861611155b806118fc575060f860020a602d02600160f860020a03198616145b80611917575060f960020a603302600160f860020a03198616145b80611932575060fa60020a601d02600160f860020a03198616145b8061194d575060f960020a603702600160f860020a03198616145b156119d75760408a0151600019146119cc57888a6040015181518110151561197157fe5b60209081029091010151925060018351600481111561198c57fe5b14806119b557506003835160048111156119a257fe5b1480156119b5575060a083015160ff1615155b156119cc5760019d50979b5060009a508b97611a38565b6116608a8a8d612791565b60fd60020a600160f860020a0319861610801590611a06575060f960020a603f02600160f860020a0319861611155b15611a1d5760019d50979b5060009a508b97611a38565b89516001018a52611324565b6000898b602001519d509d509d505b50505050505050505050509250925092565b606080606060008692508585036040519080825280601f01601f191660200182016040528015611a84578160200160208202803883390190505b5091508590505b84811015611ae4578281815181101515611aa157fe5b90602001015160f860020a900460f860020a0282878303815181101515611ac457fe5b906020010190600160f860020a031916908160001a905350600101611a8b565b5095945050505050565b6000816040518082805190602001908083835b60208310611b205780518252601f199092019160209182019101611b01565b51815160209384036101000a6000190180199092169116179052604051919093018190038120885190955088945090928392508401908083835b60208310611b795780518252601f199092019160209182019101611b5a565b5181516020939093036101000a60001901801990911692169190911790526040519201829003909120939093149695505050505050565b6000611bbd82600061293c565b92915050565b60008054600160a060020a03161580611bee5750600054611bec90600160a060020a031661237f565b155b15611bff57611bfd6000612383565b505b6000809054906101000a9004600160a060020a0316600160a060020a03166338cc48316040518163ffffffff1660e060020a028152600401602060405180830381600087803b158015611c5157600080fd5b505af1158015611c65573d6000803e3d6000fd5b505050506040513d6020811015611c7b57600080fd5b5051600154600160a060020a03908116911614611d30576000809054906101000a9004600160a060020a0316600160a060020a03166338cc48316040518163ffffffff1660e060020a028152600401602060405180830381600087803b158015611ce457600080fd5b505af1158015611cf8573d6000803e3d6000fd5b505050506040513d6020811015611d0e57600080fd5b505160018054600160a060020a031916600160a060020a039092169190911790555b60015460405160e060020a63524f3889028152602060048201818152855160248401528551600160a060020a039094169363524f388993879383926044909201919085019080838360005b83811015611d93578181015183820152602001611d7b565b50505050905090810190601f168015611dc05780820380516001836020036101000a031916815260200191505b5092505050602060405180830381600087803b158015611ddf57600080fd5b505af1158015611df3573d6000803e3d6000fd5b505050506040513d6020811015611e0957600080fd5b505192915050565b600080548190600160a060020a03161580611e3e5750600054611e3c90600160a060020a031661237f565b155b15611e4f57611e4d6000612383565b505b6000809054906101000a9004600160a060020a0316600160a060020a03166338cc48316040518163ffffffff1660e060020a028152600401602060405180830381600087803b158015611ea157600080fd5b505af1158015611eb5573d6000803e3d6000fd5b505050506040513d6020811015611ecb57600080fd5b5051600154600160a060020a03908116911614611f80576000809054906101000a9004600160a060020a0316600160a060020a03166338cc48316040518163ffffffff1660e060020a028152600401602060405180830381600087803b158015611f3457600080fd5b505af1158015611f48573d6000803e3d6000fd5b505050506040513d6020811015611f5e57600080fd5b505160018054600160a060020a031916600160a060020a039092169190911790555b6001546040805160e260020a630bbceb330281526024810186905260048101918252875160448201528751600160a060020a0390931692632ef3accc9289928892829160640190602086019080838360005b83811015611fea578181015183820152602001611fd2565b50505050905090810190601f1680156120175780820380516001836020036101000a031916815260200191505b509350505050602060405180830381600087803b15801561203757600080fd5b505af115801561204b573d6000803e3d6000fd5b505050506040513d602081101561206157600080fd5b50519050670de0b6b3a76400003a84020181111561208257600091506121de565b60015460405160e060020a63c51be90f02815260006004820181815260648301879052608060248401908152895160848501528951600160a060020a039095169463c51be90f948794938c938c938c93604481019160a49091019060208801908083838c5b838110156120ff5781810151838201526020016120e7565b50505050905090810190601f16801561212c5780820380516001836020036101000a031916815260200191505b50838103825285518152855160209182019187019080838360005b8381101561215f578181015183820152602001612147565b50505050905090810190601f16801561218c5780820380516001836020036101000a031916815260200191505b5096505050505050506020604051808303818588803b1580156121ae57600080fd5b505af11580156121c2573d6000803e3d6000fd5b50505050506040513d60208110156121d957600080fd5b505191505b509392505050565b80156122b257600a54600160a060020a03161561225b576040805160e560020a62461bcd02815260206004820152602260248201527f486f6d65207465616d2068617320616c7265616479206265656e2063686f7365604482015260f160020a61371702606482015290519081900360840190fd5b600a8054600160a060020a03191633908117909155604080519182526020820181905260048282015260e060020a63486f6d6502606083015251600080516020612f368339815191529181900360800190a1612374565b600b54600160a060020a031615612321576040805160e560020a62461bcd02815260206004820152602260248201527f41776179207465616d2068617320616c7265616479206265656e2063686f7365604482015260f160020a61371702606482015290519081900360840190fd5b600b8054600160a060020a03191633908117909155604080519182526020820181905260048282015260e060020a634177617902606083015251600080516020612f368339815191529181900360800190a15b506008805434019055565b3b90565b6000611bbd612a7c565b612395612dfb565b606061239f612dfb565b6060806040519081016040528060008152602001600081526020016000198152509150846040519080825280602002602001820160405280156123fc57816020015b6123e9612dc4565b8152602001906001900390816123e15790505b5091959194509092505050565b6000612413612dc4565b61241b612dc4565b835160208601511061244f57600084600186510381518110151561243b57fe5b6020908102909101015190935091506124b2565b506040805160c08101825260008082526020808301829052928201819052606082018190526080820181905260a082015290850151845182918691811061249257fe5b602090810290910181019190915285018051600190810190915292509050805b509250929050565b6000806000806124c8612dc4565b875160018101895293505b85518851101561277e578751865187919081106124ec57fe5b016020015160f860020a9081900402925060f960020a601102600160f860020a031984161415612554576125208888612409565b915091508115156125375783885260039450612786565b61254b816003866001018b60000151612d67565b60009450612786565b60fa60020a601702600160f860020a03198416148015612578575085518851600101105b156127725787516001018089528651879190811061259257fe5b90602001015160f860020a900460f860020a02600160f860020a03191660f960020a60110214806125f457508751865187919081106125cd57fe5b90602001015160f860020a900460f860020a02600160f860020a03191660f860020a602f02145b80612630575087518651879190811061260957fe5b90602001015160f860020a900460f860020a02600160f860020a03191660fa60020a601702145b8061266c575087518651879190811061264557fe5b90602001015160f860020a900460f860020a02600160f860020a03191660f960020a603302145b806126a8575087518651879190811061268157fe5b90602001015160f860020a900460f860020a02600160f860020a03191660f960020a603902145b806126e457508751865187919081106126bd57fe5b90602001015160f860020a900460f860020a02600160f860020a03191660f960020a603702145b8061272057508751865187919081106126f957fe5b90602001015160f860020a900460f860020a02600160f860020a03191660f960020a603102145b8061275c575087518651879190811061273557fe5b90602001015160f860020a900460f860020a02600160f860020a03191660fa60020a601d02145b1561276657612772565b83885260019450612786565b875160010188526124d3565b838852600294505b505050509392505050565b60008060008060006127a1612dc4565b88516000955093505b8651895110156128de578851875188919081106127c357fe5b016020015160f860020a9081900402925060fd60020a600160f860020a031984161480612800575060f860020a600902600160f860020a03198416145b8061281b575060f960020a600502600160f860020a03198416145b80612836575060f860020a600d02600160f860020a03198416145b80612851575060fa60020a600b02600160f860020a03198416145b8061286c575060f860020a607d02600160f860020a03198416145b80612887575060f860020a605d02600160f860020a03198416145b1561289557600194506128de565b60fd60020a600160f860020a0319841610806128c1575060f860020a607f02600160f860020a03198416115b156128d25783895260019550612930565b885160010189526127aa565b8415156128f15783895260029550612930565b6128fb8989612409565b915091508115156129125783895260039550612930565b612923816004868c60000151612d67565b8851600019018952600095505b50505050509392505050565b6000828180805b8351811015612a5f57835160fc60020a6003029085908390811061296357fe5b90602001015160f860020a900460f860020a02600160f860020a031916101580156129c05750835160f860020a603902908590839081106129a057fe5b90602001015160f860020a900460f860020a02600160f860020a03191611155b15612a195781156129df578515156129d757612a5f565b600019909501945b600a83029250603084828151811015156129f557fe5b90602001015160f860020a900460f860020a0260f860020a90040383019250612a57565b8381815181101515612a2757fe5b90602001015160f860020a900460f860020a02600160f860020a031916602e60f860020a021415612a5757600191505b600101612943565b6000861115612a715785600a0a830292505b509095945050505050565b600080612a9c731d3b2638a7cc9f2cb3d298a3da7a90b67e5506ed61237f565b1115612afe5760008054600160a060020a031916731d3b2638a7cc9f2cb3d298a3da7a90b67e5506ed17905560408051808201909152600b815260aa60020a6a195d1a17db585a5b9b995d026020820152612af690612dad565b5060016112e4565b6000612b1d73c03a2615d5efaf5f49f60b7bb6583eaec212fdf161237f565b1115612b785760008054600160a060020a03191673c03a2615d5efaf5f49f60b7bb6583eaec212fdf117905560408051808201909152600c815260a060020a6b6574685f726f707374656e33026020820152612af690612dad565b6000612b9773b7a07bcf2ba2f2703b24c0691b5278999c59ac7e61237f565b1115612bef5760008054600160a060020a03191673b7a07bcf2ba2f2703b24c0691b5278999c59ac7e179055604080518082019091526009815260b960020a6832ba342fb5b7bb30b7026020820152612af690612dad565b6000612c0e73146500cfd35b22e4a392fe0adc06de1a1368ed4861237f565b1115612c685760008054600160a060020a03191673146500cfd35b22e4a392fe0adc06de1a1368ed4817905560408051808201909152600b815260a860020a6a6574685f72696e6b656279026020820152612af690612dad565b6000612c87736f485c8bf6fc43ea212e93bbf8ce046c7f1cb47561237f565b1115612cbb575060008054600160a060020a031916736f485c8bf6fc43ea212e93bbf8ce046c7f1cb47517905560016112e4565b6000612cda7320e12a1f859b3feae5fb2a0a32c18f5a65555bbf61237f565b1115612d0e575060008054600160a060020a0319167320e12a1f859b3feae5fb2a0a32c18f5a65555bbf17905560016112e4565b6000612d2d7351efaf4c8b3c9afbd5ab9f4bbc82784ab6ef8faa61237f565b1115612d61575060008054600160a060020a0319167351efaf4c8b3c9afbd5ab9f4bbc82784ab6ef8faa17905560016112e4565b50600090565b83836004811115612d7457fe5b90816004811115612d8157fe5b90525060208401919091526001604084018190526060840191909152608083015250600060a090910152565b8051612dc0906002906020840190612e1d565b5050565b6040805160c08101909152806000815260006020820181905260408201819052606082018190526080820181905260a09091015290565b6060604051908101604052806000815260200160008152602001600081525090565b828054600181600116156101000203166002900490600052602060002090601f016020900481019282601f10612e5e57805160ff1916838001178555612e8b565b82800160010185558215612e8b579182015b82811115612e8b578251825591602001919060010190612e70565b50612e97929150612e9b565b5090565b6112e491905b80821115612e975760008155600101612ea1560057696e6e65722068617320616c7265616479206265656e20706169642e000000ada201a94c8a85cc9fa3e80313179675b0e321eeb0c0a16324761f34e336f9e1621c2856e3b87f81235f8ac8a22bbb40a0142961960710d00b2b6c380902b57e55736572206973206e6f742074686520636f6e7472616374206f776e65722e00fbe28f43fde665d51d1f13122bc58afb312621b4e0e15feff40c19dd19923a8ea165627a7a72305820cf5eb484222b28d4e607a882ef09a37e71bab2e3c4076ee973c88fc37d5849500029fbe28f43fde665d51d1f13122bc58afb312621b4e0e15feff40c19dd19923a8e",
  "source": "pragma solidity ^0.4.24;\nimport \"oraclize-api/contracts/usingOraclize.sol\";\nimport \"jsmnsol-lib/contracts/JsmnSolLib.sol\";\n\ncontract Tournament is usingOraclize {\n\n  event SubmittedEntry(address entrant, string ipfsHash);\n  event PaidWinner(address winner, uint amount);\n  event ReceivedOraclizeResult(string result);\n  event LogNewOraclizeQuery(string description);\n  event TeamSelected(address picker, string message);\n\n  address owner;\n  string oracleURL;\n\n  bool public isLocked = false;\n  bool public isCompleted = false;\n  bool public isWinnerPaid = false;\n\n  uint public weiWeigered;\n  uint public wagerAmount;\n\n  address public homePicker;  // chose the home team\n  address public awayPicker;  // chose the away team\n\n  uint public homeTeamScore;  // home team points\n  uint public awayTeamScore;  // away team points\n\n  string public homeTeamCode; // TODO: set these as events to reduce storage and save $$\n  string public awayTeamCode;\n  uint public gameDate;\n\n  /** @dev Ensures only this contract's owner can execute this call\n   */\n  modifier onlyOwner() {\n    require(msg.sender == owner, \"User is not the contract owner.\");\n    _;\n  }\n\n  /** @dev Ensures the current message contains enough value to cover the wager amount\n   */\n  modifier hasSufficientFunds() {\n    require(msg.value >= wagerAmount, \"Insufficient funds sent.\");\n    _;\n  }\n\n  /** @dev Ensures the winner has not already been paid\n   */\n  modifier winnerUnpaid() {\n    require(!isWinnerPaid, \"Winner has already been paid.\");\n    _;\n  }\n\n  /** @dev Instantiates the contract with a wager on one of the teams\n    * @param _url the Oraclize query url to be used to track this game's status\n    * @param isHome represents if the wager is on the home team (true) or away team (false)\n    * @param _homeTeamCode the home team's abbreviation code, eg 'DET' for Detroit\n    * @param _awayTeamCode the away team's abbreviation code\n    * @param _gameDate a Unix timestamp in seconds of the start time of the game, in EDT\n   */\n  constructor(string _url, bool isHome, string _homeTeamCode, string _awayTeamCode, uint _gameDate) payable public {\n    assert(bytes(_url).length > 0);\n    assert(msg.value > 0);\n\n    // READ: When running tests or running locally, deploy ethereum-bridge and set the OAR here; otw comment\n    // OAR = OraclizeAddrResolverI(0x6f485C8BF6fc43eA212E93BBF8ce046C7f1cb475);\n    owner = msg.sender;\n    oracleURL = _url;\n\n    _logEntry(isHome);\n    wagerAmount = msg.value;\n\n    homeTeamCode = _homeTeamCode;\n    awayTeamCode = _awayTeamCode;\n    gameDate = _gameDate;\n\n  }\n\n  /** @dev When a wager has been set, this updates the contract state to reflect it\n    * @param isHome represents if the wager is on the home team (true) or away team (false)\n   */\n  function _logEntry(bool isHome) internal {\n    if (isHome) {\n      require(homePicker == address(0), \"Home team has already been chosen.\");\n      homePicker = msg.sender;\n      emit TeamSelected(msg.sender, \"Home\");\n    } else {\n      require(awayPicker == address(0), \"Away team has already been chosen.\");\n      awayPicker = msg.sender;\n      emit TeamSelected(msg.sender, \"Away\"); \n    }\n    weiWeigered += msg.value;\n  }\n\n  /** @dev Place a wager on one of the teams.\n    * @param isHome represents if the wager is on the home team (true) or away team (false)\n   */\n  function submitEntry(bool isHome) public payable hasSufficientFunds {\n    require(!isLocked, \"Contract is locked.\");\n    _logEntry(isHome);\n    if ((homePicker != address(0)) && (awayPicker != address(0))) {\n      isLocked = true;\n    }\n  }\n\n  /** @dev Simple helper to compare strings\n    * @param a first string to compare\n    * @param b second string to compare\n    * @return true if the strings match; otherwise, false\n   */\n  function compareStrings (string a, string b) internal pure returns (bool){\n    return keccak256(a) == keccak256(b);\n  }\n\n  /** @dev The callback that Oraclize calls with the query result.\n    * Winners are paid out if the game has ended.\n    * @param myid unique identifier of this callback\n    * @param result a string representation of the JSON response\n   */\n  function __callback(bytes32 myid, string result) public winnerUnpaid {\n    if (msg.sender != oraclize_cbAddress()) revert();\n\n    emit ReceivedOraclizeResult(result);\n\n    // Parse the oraclize query results\n    // https://medium.com/maibornwolff/a-json-parser-for-solidity-9cc73b4b42\n\n    uint returnValue;\n    JsmnSolLib.Token[] memory tokens;\n    uint actualNum;\n\n    (returnValue, tokens, actualNum) = JsmnSolLib.parse(result, 5);\n\n    // First, make sure the game is not still being played\n    JsmnSolLib.Token memory token = tokens[1];\n    string memory currentIntermission = JsmnSolLib.getBytes(result, token.start, token.end);\n\n    token = tokens[2];\n    string memory currentQuarter = JsmnSolLib.getBytes(result, token.start, token.end);\n\n    if (!compareStrings(currentIntermission, \"null\") || !compareStrings(currentQuarter, \"null\")) {\n      revert(\"Game is still in progress.\");\n    } else {\n      isCompleted = true;\n    }\n\n    // Second, get the team's scores and make sure they're not empty\n    token = tokens[3];\n    string memory awayScoreStr = JsmnSolLib.getBytes(result, token.start, token.end);\n\n    token = tokens[4];\n    string memory homeScoreStr = JsmnSolLib.getBytes(result, token.start, token.end);\n\n    if(compareStrings(awayScoreStr, \"null\") || compareStrings(homeScoreStr, \"null\")) {\n      revert(\"Game has not started.\");\n    } else {\n      awayTeamScore = parseInt(awayScoreStr);\n      homeTeamScore = parseInt(homeScoreStr);\n    }\n\n    // Transfer the contract's balance to the winner;\n    // divide across both in the event of a tie\n    uint winnings = weiWeigered;\n    if (awayTeamScore > homeTeamScore) {\n      // transfer to the awayPicker\n      awayPicker.transfer(winnings);\n      emit PaidWinner(awayPicker, winnings);\n    } else if (awayTeamScore < homeTeamScore) {\n      // transfer to the homePicker\n      emit PaidWinner(homePicker, this.balance);\n      homePicker.transfer(winnings);\n      emit PaidWinner(homePicker, winnings);\n      emit PaidWinner(homePicker, this.balance);\n    } else {\n      // transfer to both\n      uint payout = winnings / 2;\n      awayPicker.transfer(payout);\n      homePicker.transfer(payout);\n      emit PaidWinner(awayPicker, payout);\n      emit PaidWinner(homePicker, payout);\n    }\n    isWinnerPaid = true;\n  }\n\n  /** @dev Queries the oracle for this contest's result\n   */\n  function updateResults() public onlyOwner winnerUnpaid {\n    if (oraclize_getPrice(\"URL\") > address(this).balance) {\n      emit LogNewOraclizeQuery(\"Oraclize query was NOT sent, please add some ETH to cover for the query fee\");\n    } else {\n      emit LogNewOraclizeQuery(\"Oraclize query was sent, standing by for the answer..\");\n      oraclize_query(\"URL\", oracleURL, 200000);\n    }\n  }\n\n  /** @dev Terminates this contract and refunds any wagers that have been placed\n   */\n  function kill() public onlyOwner {\n    if (homePicker != address(0) && awayPicker != address(0)) {\n      uint payout = weiWeigered / 2;\n      awayPicker.transfer(payout);\n      homePicker.transfer(payout);\n      emit PaidWinner(awayPicker, payout);\n      emit PaidWinner(homePicker, payout);\n    } else if (homePicker != address(0)) {\n      homePicker.transfer(weiWeigered);\n      emit PaidWinner(homePicker, weiWeigered);\n    } else if (awayPicker != address(0)) {\n      awayPicker.transfer(weiWeigered);\n      emit PaidWinner(awayPicker, weiWeigered);\n    }\n    selfdestruct(owner);\n  }\n\n  function() public payable {}\n\n}",
  "sourcePath": "/Users/emilebaizel/Documents/workspace/git/Winning/contracts/Tournament.sol",
  "compiler": {
    "name": "solc",
    "version": "0.4.24+commit.e67f0147.Emscripten.clang"
  },
  "schemaVersion": "2.0.0",
  "updatedAt": "2018-09-14T19:04:39.279Z"
}