{
  "contractName": "Tournament",
  "abi": [
    {
      "constant": true,
      "inputs": [],
      "name": "weiWeigered",
      "outputs": [
        {
          "name": "",
          "type": "uint256"
        }
      ],
      "payable": false,
      "stateMutability": "view",
      "type": "function"
    },
    {
      "constant": true,
      "inputs": [],
      "name": "isWinnerPaid",
      "outputs": [
        {
          "name": "",
          "type": "bool"
        }
      ],
      "payable": false,
      "stateMutability": "view",
      "type": "function"
    },
    {
      "constant": true,
      "inputs": [],
      "name": "wagerAmount",
      "outputs": [
        {
          "name": "",
          "type": "uint256"
        }
      ],
      "payable": false,
      "stateMutability": "view",
      "type": "function"
    },
    {
      "constant": true,
      "inputs": [],
      "name": "awayPicker",
      "outputs": [
        {
          "name": "",
          "type": "address"
        }
      ],
      "payable": false,
      "stateMutability": "view",
      "type": "function"
    },
    {
      "constant": true,
      "inputs": [],
      "name": "homeTeamScore",
      "outputs": [
        {
          "name": "",
          "type": "uint256"
        }
      ],
      "payable": false,
      "stateMutability": "view",
      "type": "function"
    },
    {
      "constant": true,
      "inputs": [],
      "name": "homePicker",
      "outputs": [
        {
          "name": "",
          "type": "address"
        }
      ],
      "payable": false,
      "stateMutability": "view",
      "type": "function"
    },
    {
      "constant": true,
      "inputs": [],
      "name": "awayTeamScore",
      "outputs": [
        {
          "name": "",
          "type": "uint256"
        }
      ],
      "payable": false,
      "stateMutability": "view",
      "type": "function"
    },
    {
      "constant": true,
      "inputs": [],
      "name": "isLocked",
      "outputs": [
        {
          "name": "",
          "type": "bool"
        }
      ],
      "payable": false,
      "stateMutability": "view",
      "type": "function"
    },
    {
      "constant": true,
      "inputs": [],
      "name": "isCompleted",
      "outputs": [
        {
          "name": "",
          "type": "bool"
        }
      ],
      "payable": false,
      "stateMutability": "view",
      "type": "function"
    },
    {
      "inputs": [
        {
          "name": "_url",
          "type": "string"
        },
        {
          "name": "isHome",
          "type": "bool"
        }
      ],
      "payable": true,
      "stateMutability": "payable",
      "type": "constructor"
    },
    {
      "payable": true,
      "stateMutability": "payable",
      "type": "fallback"
    },
    {
      "anonymous": false,
      "inputs": [
        {
          "indexed": false,
          "name": "entrant",
          "type": "address"
        },
        {
          "indexed": false,
          "name": "ipfsHash",
          "type": "string"
        }
      ],
      "name": "SubmittedEntry",
      "type": "event"
    },
    {
      "anonymous": false,
      "inputs": [
        {
          "indexed": false,
          "name": "winner",
          "type": "address"
        },
        {
          "indexed": false,
          "name": "amount",
          "type": "uint256"
        }
      ],
      "name": "PaidWinner",
      "type": "event"
    },
    {
      "anonymous": false,
      "inputs": [
        {
          "indexed": false,
          "name": "result",
          "type": "string"
        }
      ],
      "name": "ReceivedOraclizeResult",
      "type": "event"
    },
    {
      "anonymous": false,
      "inputs": [
        {
          "indexed": false,
          "name": "description",
          "type": "string"
        }
      ],
      "name": "LogNewOraclizeQuery",
      "type": "event"
    },
    {
      "anonymous": false,
      "inputs": [
        {
          "indexed": false,
          "name": "picker",
          "type": "address"
        },
        {
          "indexed": false,
          "name": "message",
          "type": "string"
        }
      ],
      "name": "TeamSelected",
      "type": "event"
    },
    {
      "constant": false,
      "inputs": [
        {
          "name": "isHome",
          "type": "bool"
        }
      ],
      "name": "submitEntry",
      "outputs": [],
      "payable": true,
      "stateMutability": "payable",
      "type": "function"
    },
    {
      "constant": false,
      "inputs": [
        {
          "name": "myid",
          "type": "bytes32"
        },
        {
          "name": "result",
          "type": "string"
        }
      ],
      "name": "__callback",
      "outputs": [],
      "payable": false,
      "stateMutability": "nonpayable",
      "type": "function"
    },
    {
      "constant": false,
      "inputs": [
        {
          "name": "myid",
          "type": "bytes32"
        },
        {
          "name": "result",
          "type": "string"
        },
        {
          "name": "proof",
          "type": "bytes"
        }
      ],
      "name": "__callback",
      "outputs": [],
      "payable": false,
      "stateMutability": "nonpayable",
      "type": "function"
    },
    {
      "constant": false,
      "inputs": [],
      "name": "updateResults",
      "outputs": [],
      "payable": false,
      "stateMutability": "nonpayable",
      "type": "function"
    }
  ],
  "bytecode": "0x60806040526000600760006101000a81548160ff0219169083151502179055506000600760016101000a81548160ff0219169083151502179055506000600760026101000a81548160ff021916908315150217905550604051620050a5380380620050a58339810180604052810190808051820192919060200180519060200190929190505050600082511115156200009457fe5b600034111515620000a157fe5b736f485c8bf6fc43ea212e93bbf8ce046c7f1cb4756000806101000a81548173ffffffffffffffffffffffffffffffffffffffff021916908373ffffffffffffffffffffffffffffffffffffffff16021790555033600560006101000a81548173ffffffffffffffffffffffffffffffffffffffff021916908373ffffffffffffffffffffffffffffffffffffffff16021790555081600690805190602001906200014e9291906200052d565b50620001698162000178640100000000026401000000009004565b346009819055505050620005dc565b80156200034f57600073ffffffffffffffffffffffffffffffffffffffff16600a60009054906101000a900473ffffffffffffffffffffffffffffffffffffffff1673ffffffffffffffffffffffffffffffffffffffff161415156200026c576040517f08c379a00000000000000000000000000000000000000000000000000000000081526004018080602001828103825260228152602001807f486f6d65207465616d2068617320616c7265616479206265656e2063686f736581526020017f6e2e00000000000000000000000000000000000000000000000000000000000081525060400191505060405180910390fd5b33600a60006101000a81548173ffffffffffffffffffffffffffffffffffffffff021916908373ffffffffffffffffffffffffffffffffffffffff1602179055507ffbe28f43fde665d51d1f13122bc58afb312621b4e0e15feff40c19dd19923a8e33604051808273ffffffffffffffffffffffffffffffffffffffff1673ffffffffffffffffffffffffffffffffffffffff16815260200180602001828103825260048152602001807f486f6d65000000000000000000000000000000000000000000000000000000008152506020019250505060405180910390a16200051a565b600073ffffffffffffffffffffffffffffffffffffffff16600b60009054906101000a900473ffffffffffffffffffffffffffffffffffffffff1673ffffffffffffffffffffffffffffffffffffffff161415156200043c576040517f08c379a00000000000000000000000000000000000000000000000000000000081526004018080602001828103825260228152602001807f41776179207465616d2068617320616c7265616479206265656e2063686f736581526020017f6e2e00000000000000000000000000000000000000000000000000000000000081525060400191505060405180910390fd5b33600b60006101000a81548173ffffffffffffffffffffffffffffffffffffffff021916908373ffffffffffffffffffffffffffffffffffffffff1602179055507ffbe28f43fde665d51d1f13122bc58afb312621b4e0e15feff40c19dd19923a8e33604051808273ffffffffffffffffffffffffffffffffffffffff1673ffffffffffffffffffffffffffffffffffffffff16815260200180602001828103825260048152602001807f41776179000000000000000000000000000000000000000000000000000000008152506020019250505060405180910390a15b3460086000828254019250508190555050565b828054600181600116156101000203166002900490600052602060002090601f016020900481019282601f106200057057805160ff1916838001178555620005a1565b82800160010185558215620005a1579182015b82811115620005a057825182559160200191906001019062000583565b5b509050620005b09190620005b4565b5090565b620005d991905b80821115620005d5576000816000905550600101620005bb565b5090565b90565b614ab980620005ec6000396000f3006080604052600436106100c5576000357c0100000000000000000000000000000000000000000000000000000000900463ffffffff1680630cf3c7fd146100c757806327dc297e146100f2578063314141411461016957806338bbfa5014610198578063464477f41461025557806349de47041461026c5780634dae97f21461029757806352df11cc146102ee5780635d48ca111461031957806389d7d13514610370578063a4e2d6341461039b578063d1ef532d146103ca578063fa391c64146103ec575b005b3480156100d357600080fd5b506100dc61041b565b6040518082815260200191505060405180910390f35b3480156100fe57600080fd5b506101676004803603810190808035600019169060200190929190803590602001908201803590602001908080601f0160208091040260200160405190810160405280939291908181526020018383808284378201915050505050509192919290505050610421565b005b34801561017557600080fd5b5061017e610e1d565b604051808215151515815260200191505060405180910390f35b3480156101a457600080fd5b506102536004803603810190808035600019169060200190929190803590602001908201803590602001908080601f0160208091040260200160405190810160405280939291908181526020018383808284378201915050505050509192919290803590602001908201803590602001908080601f0160208091040260200160405190810160405280939291908181526020018383808284378201915050505050509192919290505050610e30565b005b34801561026157600080fd5b5061026a610e35565b005b34801561027857600080fd5b50610281611203565b6040518082815260200191505060405180910390f35b3480156102a357600080fd5b506102ac611209565b604051808273ffffffffffffffffffffffffffffffffffffffff1673ffffffffffffffffffffffffffffffffffffffff16815260200191505060405180910390f35b3480156102fa57600080fd5b5061030361122f565b6040518082815260200191505060405180910390f35b34801561032557600080fd5b5061032e611235565b604051808273ffffffffffffffffffffffffffffffffffffffff1673ffffffffffffffffffffffffffffffffffffffff16815260200191505060405180910390f35b34801561037c57600080fd5b5061038561125b565b6040518082815260200191505060405180910390f35b3480156103a757600080fd5b506103b0611261565b604051808215151515815260200191505060405180910390f35b6103ea600480360381019080803515159060200190929190505050611274565b005b3480156103f857600080fd5b5061040161144e565b604051808215151515815260200191505060405180910390f35b60085481565b60006060600061042f614934565b606080606080600080600760029054906101000a900460ff161515156104bd576040517f08c379a000000000000000000000000000000000000000000000000000000000815260040180806020018281038252601d8152602001807f57696e6e65722068617320616c7265616479206265656e20706169642e00000081525060200191505060405180910390fd5b6104c5611461565b73ffffffffffffffffffffffffffffffffffffffff163373ffffffffffffffffffffffffffffffffffffffff161415156104fe57600080fd5b7fd6d4d494a3d438ea2d0f395802c2cc70a08a044d5c4736fca281b742c219c9338b6040518080602001828103825283818151815260200191508051906020019080838360005b83811015610560578082015181840152602081019050610545565b50505050905090810190601f16801561058d5780820380516001836020036101000a031916815260200191505b509250505060405180910390a16105a58b60056117bf565b809a50819b50829c505050508860018151811015156105c057fe5b9060200190602002015196506105df8b88602001518960600151612583565b95508860028151811015156105f057fe5b90602001906020020151965061060f8b88602001518960600151612583565b9450610650866040805190810160405280600481526020017f6e756c6c00000000000000000000000000000000000000000000000000000000815250612684565b15806106985750610696856040805190810160405280600481526020017f6e756c6c00000000000000000000000000000000000000000000000000000000815250612684565b155b1561070b576040517f08c379a000000000000000000000000000000000000000000000000000000000815260040180806020018281038252601a8152602001807f47616d65206973207374696c6c20696e2070726f67726573732e00000000000081525060200191505060405180910390fd5b6001600760016101000a81548160ff02191690831515021790555088600381518110151561073557fe5b9060200190602002015196506107548b88602001518960600151612583565b935088600481518110151561076557fe5b9060200190602002015196506107848b88602001518960600151612583565b92506107c5846040805190810160405280600481526020017f6e756c6c00000000000000000000000000000000000000000000000000000000815250612684565b8061080b575061080a836040805190810160405280600481526020017f6e756c6c00000000000000000000000000000000000000000000000000000000815250612684565b5b1561087e576040517f08c379a00000000000000000000000000000000000000000000000000000000081526004018080602001828103825260158152602001807f47616d6520686173206e6f7420737461727465642e000000000000000000000081525060200191505060405180910390fd5b6108878461275d565b600d819055506108968361275d565b600c819055506008549150600c54600d5411156109a857600b60009054906101000a900473ffffffffffffffffffffffffffffffffffffffff1673ffffffffffffffffffffffffffffffffffffffff166108fc839081150290604051600060405180830381858888f19350505050158015610915573d6000803e3d6000fd5b507fada201a94c8a85cc9fa3e80313179675b0e321eeb0c0a16324761f34e336f9e1600b60009054906101000a900473ffffffffffffffffffffffffffffffffffffffff1683604051808373ffffffffffffffffffffffffffffffffffffffff1673ffffffffffffffffffffffffffffffffffffffff1681526020018281526020019250505060405180910390a1610df4565b600c54600d541015610bf7577fada201a94c8a85cc9fa3e80313179675b0e321eeb0c0a16324761f34e336f9e1600a60009054906101000a900473ffffffffffffffffffffffffffffffffffffffff163073ffffffffffffffffffffffffffffffffffffffff1631604051808373ffffffffffffffffffffffffffffffffffffffff1673ffffffffffffffffffffffffffffffffffffffff1681526020018281526020019250505060405180910390a1600a60009054906101000a900473ffffffffffffffffffffffffffffffffffffffff1673ffffffffffffffffffffffffffffffffffffffff166108fc839081150290604051600060405180830381858888f19350505050158015610ac0573d6000803e3d6000fd5b507fada201a94c8a85cc9fa3e80313179675b0e321eeb0c0a16324761f34e336f9e1600a60009054906101000a900473ffffffffffffffffffffffffffffffffffffffff1683604051808373ffffffffffffffffffffffffffffffffffffffff1673ffffffffffffffffffffffffffffffffffffffff1681526020018281526020019250505060405180910390a17fada201a94c8a85cc9fa3e80313179675b0e321eeb0c0a16324761f34e336f9e1600a60009054906101000a900473ffffffffffffffffffffffffffffffffffffffff163073ffffffffffffffffffffffffffffffffffffffff1631604051808373ffffffffffffffffffffffffffffffffffffffff1673ffffffffffffffffffffffffffffffffffffffff1681526020018281526020019250505060405180910390a1610df3565b600282811515610c0357fe5b049050600b60009054906101000a900473ffffffffffffffffffffffffffffffffffffffff1673ffffffffffffffffffffffffffffffffffffffff166108fc829081150290604051600060405180830381858888f19350505050158015610c6e573d6000803e3d6000fd5b50600a60009054906101000a900473ffffffffffffffffffffffffffffffffffffffff1673ffffffffffffffffffffffffffffffffffffffff166108fc829081150290604051600060405180830381858888f19350505050158015610cd7573d6000803e3d6000fd5b507fada201a94c8a85cc9fa3e80313179675b0e321eeb0c0a16324761f34e336f9e1600b60009054906101000a900473ffffffffffffffffffffffffffffffffffffffff1682604051808373ffffffffffffffffffffffffffffffffffffffff1673ffffffffffffffffffffffffffffffffffffffff1681526020018281526020019250505060405180910390a17fada201a94c8a85cc9fa3e80313179675b0e321eeb0c0a16324761f34e336f9e1600a60009054906101000a900473ffffffffffffffffffffffffffffffffffffffff1682604051808373ffffffffffffffffffffffffffffffffffffffff1673ffffffffffffffffffffffffffffffffffffffff1681526020018281526020019250505060405180910390a15b5b6001600760026101000a81548160ff021916908315150217905550505050505050505050505050565b600760029054906101000a900460ff1681565b505050565b600560009054906101000a900473ffffffffffffffffffffffffffffffffffffffff1673ffffffffffffffffffffffffffffffffffffffff163373ffffffffffffffffffffffffffffffffffffffff16141515610efa576040517f08c379a000000000000000000000000000000000000000000000000000000000815260040180806020018281038252601f8152602001807f55736572206973206e6f742074686520636f6e7472616374206f776e65722e0081525060200191505060405180910390fd5b600760029054906101000a900460ff16151515610f7f576040517f08c379a000000000000000000000000000000000000000000000000000000000815260040180806020018281038252601d8152602001807f57696e6e65722068617320616c7265616479206265656e20706169642e00000081525060200191505060405180910390fd5b3073ffffffffffffffffffffffffffffffffffffffff1631610fd56040805190810160405280600381526020017f55524c0000000000000000000000000000000000000000000000000000000000815250612771565b1115611094577f621c2856e3b87f81235f8ac8a22bbb40a0142961960710d00b2b6c380902b57e60405180806020018281038252604b8152602001807f4f7261636c697a6520717565727920776173204e4f542073656e742c20706c6581526020017f6173652061646420736f6d652045544820746f20636f76657220666f7220746881526020017f652071756572792066656500000000000000000000000000000000000000000081525060600191505060405180910390a1611201565b7f621c2856e3b87f81235f8ac8a22bbb40a0142961960710d00b2b6c380902b57e6040518080602001828103825260358152602001807f4f7261636c697a65207175657279207761732073656e742c207374616e64696e81526020017f6720627920666f722074686520616e737765722e2e000000000000000000000081525060400191505060405180910390a16111ff6040805190810160405280600381526020017f55524c000000000000000000000000000000000000000000000000000000000081525060068054600181600116156101000203166002900480601f0160208091040260200160405190810160405280929190818152602001828054600181600116156101000203166002900480156111f15780601f106111c6576101008083540402835291602001916111f1565b820191906000526020600020905b8154815290600101906020018083116111d457829003601f168201915b5050505050620249f0612b41565b505b565b60095481565b600b60009054906101000a900473ffffffffffffffffffffffffffffffffffffffff1681565b600c5481565b600a60009054906101000a900473ffffffffffffffffffffffffffffffffffffffff1681565b600d5481565b600760009054906101000a900460ff1681565b60095434101515156112ee576040517f08c379a00000000000000000000000000000000000000000000000000000000081526004018080602001828103825260188152602001807f496e73756666696369656e742066756e64732073656e742e000000000000000081525060200191505060405180910390fd5b600760009054906101000a900460ff16151515611373576040517f08c379a00000000000000000000000000000000000000000000000000000000081526004018080602001828103825260138152602001807f436f6e7472616374206973206c6f636b65642e0000000000000000000000000081525060200191505060405180910390fd5b61137c816130f1565b600073ffffffffffffffffffffffffffffffffffffffff16600a60009054906101000a900473ffffffffffffffffffffffffffffffffffffffff1673ffffffffffffffffffffffffffffffffffffffff161415801561142a5750600073ffffffffffffffffffffffffffffffffffffffff16600b60009054906101000a900473ffffffffffffffffffffffffffffffffffffffff1673ffffffffffffffffffffffffffffffffffffffff1614155b1561144b576001600760006101000a81548160ff0219169083151502179055505b50565b600760019054906101000a900460ff1681565b6000806000809054906101000a900473ffffffffffffffffffffffffffffffffffffffff1673ffffffffffffffffffffffffffffffffffffffff1614806114d1575060006114cf6000809054906101000a900473ffffffffffffffffffffffffffffffffffffffff166134a2565b145b156114e2576114e060006134ad565b505b6000809054906101000a900473ffffffffffffffffffffffffffffffffffffffff1673ffffffffffffffffffffffffffffffffffffffff166338cc48316040518163ffffffff167c0100000000000000000000000000000000000000000000000000000000028152600401602060405180830381600087803b15801561156757600080fd5b505af115801561157b573d6000803e3d6000fd5b505050506040513d602081101561159157600080fd5b810190808051906020019092919050505073ffffffffffffffffffffffffffffffffffffffff16600160009054906101000a900473ffffffffffffffffffffffffffffffffffffffff1673ffffffffffffffffffffffffffffffffffffffff161415156116f9576000809054906101000a900473ffffffffffffffffffffffffffffffffffffffff1673ffffffffffffffffffffffffffffffffffffffff166338cc48316040518163ffffffff167c0100000000000000000000000000000000000000000000000000000000028152600401602060405180830381600087803b15801561167d57600080fd5b505af1158015611691573d6000803e3d6000fd5b505050506040513d60208110156116a757600080fd5b8101908080519060200190929190505050600160006101000a81548173ffffffffffffffffffffffffffffffffffffffff021916908373ffffffffffffffffffffffffffffffffffffffff1602179055505b600160009054906101000a900473ffffffffffffffffffffffffffffffffffffffff1673ffffffffffffffffffffffffffffffffffffffff1663c281d19e6040518163ffffffff167c0100000000000000000000000000000000000000000000000000000000028152600401602060405180830381600087803b15801561177f57600080fd5b505af1158015611793573d6000803e3d6000fd5b505050506040513d60208110156117a957600080fd5b8101908080519060200190929190505050905090565b60006060600060606117cf61497d565b606060008060008060006117e1614934565b6000808f9a506117f08f6134be565b99509950896020015196505b8a518a600001511015612562578a8a6000015181518110151561181b57fe5b9060200101517f010000000000000000000000000000000000000000000000000000000000000090047f0100000000000000000000000000000000000000000000000000000000000000029450607b7f010000000000000000000000000000000000000000000000000000000000000002857effffffffffffffffffffffffffffffffffffffffffffffffffffffffffffff191614806118ff5750605b7f010000000000000000000000000000000000000000000000000000000000000002857effffffffffffffffffffffffffffffffffffffffffffffffffffffffffffff1916145b15611a3f5786806001019750506119168a8a61355b565b935093508315156119345760038960008090509d509d509d50612571565b7fffffffffffffffffffffffffffffffffffffffffffffffffffffffffffffffff8a6040015114151561199357888a6040015181518110151561197357fe5b9060200190602002015160a001805180919060010160ff1660ff16815250505b607b7f010000000000000000000000000000000000000000000000000000000000000002857effffffffffffffffffffffffffffffffffffffffffffffffffffffffffffff1916146119e65760026119e9565b60015b836000019060048111156119f957fe5b90816004811115611a0657fe5b815250508960000151836020018181525050600183604001901515908115158152505060018a60200151038a604001818152505061254d565b607d7f010000000000000000000000000000000000000000000000000000000000000002857effffffffffffffffffffffffffffffffffffffffffffffffffffffffffffff19161480611ad65750605d7f010000000000000000000000000000000000000000000000000000000000000002857effffffffffffffffffffffffffffffffffffffffffffffffffffffffffffff1916145b15611d1657607d7f010000000000000000000000000000000000000000000000000000000000000002857effffffffffffffffffffffffffffffffffffffffffffffffffffffffffffff191614611b2e576002611b31565b60015b91506000905060018a602001510395505b600086101515611c45578886815181101515611b5a57fe5b90602001906020020151925082604001518015611b7957508260800151155b15611c3757816004811115611b8a57fe5b83600001516004811115611b9a57fe5b141515611bb45760018960008090509d509d509d50612571565b7fffffffffffffffffffffffffffffffffffffffffffffffffffffffffffffffff8a604001818152505060018a60000151018987815181101515611bf457fe5b90602001906020020151606001818152505060018987815181101515611c1657fe5b90602001906020020151608001901515908115158152505060019050611c45565b858060019003965050611b42565b801515611c5f5760018960008090509d509d509d50612571565b5b6000861115611cb8578886815181101515611c7757fe5b90602001906020020151925082604001518015611c9657508260800151155b15611caa57858a6040018181525050611cb8565b858060019003965050611c60565b6000861415611d11578886815181101515611ccf57fe5b90602001906020020151925082604001518015611cee57508260800151155b15611d1057856fffffffffffffffffffffffffffffffff168a60400181815250505b5b61254d565b7f2200000000000000000000000000000000000000000000000000000000000000857effffffffffffffffffffffffffffffffffffffffffffffffffffffffffffff19161415611df557611d6b8a8a8d61362d565b9750600088141515611d8957878960008090509d509d509d50612571565b86806001019750507fffffffffffffffffffffffffffffffffffffffffffffffffffffffffffffffff8a60400151141515611df057888a60400151815181101515611dd057fe5b9060200190602002015160a001805180919060010160ff1660ff16815250505b61254d565b7f2000000000000000000000000000000000000000000000000000000000000000857effffffffffffffffffffffffffffffffffffffffffffffffffffffffffffff19161480611e89575060117f010000000000000000000000000000000000000000000000000000000000000002857effffffffffffffffffffffffffffffffffffffffffffffffffffffffffffff1916145b80611ed8575060127f010000000000000000000000000000000000000000000000000000000000000002857effffffffffffffffffffffffffffffffffffffffffffffffffffffffffffff1916145b80611f27575060147f010000000000000000000000000000000000000000000000000000000000000002857effffffffffffffffffffffffffffffffffffffffffffffffffffffffffffff1916145b15611f315761254d565b7f3a00000000000000000000000000000000000000000000000000000000000000857effffffffffffffffffffffffffffffffffffffffffffffffffffffffffffff19161415611f915760018a60200151038a604001818152505061254d565b7f2c00000000000000000000000000000000000000000000000000000000000000857effffffffffffffffffffffffffffffffffffffffffffffffffffffffffffff19161415612181577fffffffffffffffffffffffffffffffffffffffffffffffffffffffffffffffff8a604001511415801561204557506002600481111561201757fe5b898b6040015181518110151561202957fe5b9060200190602002015160000151600481111561204257fe5b14155b801561208757506001600481111561205957fe5b898b6040015181518110151561206b57fe5b9060200190602002015160000151600481111561208457fe5b14155b1561217c5760018a602001510395505b60008610151561217b57600260048111156120ae57fe5b89878151811015156120bc57fe5b906020019060200201516000015160048111156120d557fe5b14806121125750600160048111156120e957fe5b89878151811015156120f757fe5b9060200190602002015160000151600481111561211057fe5b145b1561216d57888681518110151561212557fe5b906020019060200201516040015180156121585750888681518110151561214857fe5b9060200190602002015160800151155b1561216c57858a604001818152505061217b565b5b858060019003965050612097565b5b61254d565b7f3000000000000000000000000000000000000000000000000000000000000000857effffffffffffffffffffffffffffffffffffffffffffffffffffffffffffff19161015801561221557507f3900000000000000000000000000000000000000000000000000000000000000857effffffffffffffffffffffffffffffffffffffffffffffffffffffffffffff191611155b8061226157507f2d00000000000000000000000000000000000000000000000000000000000000857effffffffffffffffffffffffffffffffffffffffffffffffffffffffffffff1916145b806122ad57507f6600000000000000000000000000000000000000000000000000000000000000857effffffffffffffffffffffffffffffffffffffffffffffffffffffffffffff1916145b806122f957507f7400000000000000000000000000000000000000000000000000000000000000857effffffffffffffffffffffffffffffffffffffffffffffffffffffffffffff1916145b8061234557507f6e00000000000000000000000000000000000000000000000000000000000000857effffffffffffffffffffffffffffffffffffffffffffffffffffffffffffff1916145b1561249a577fffffffffffffffffffffffffffffffffffffffffffffffffffffffffffffffff8a6040015114151561240557888a6040015181518110151561238957fe5b906020019060200201519250600160048111156123a257fe5b836000015160048111156123b257fe5b14806123ec5750600360048111156123c657fe5b836000015160048111156123d657fe5b1480156123eb575060008360a0015160ff1614155b5b156124045760018960008090509d509d509d50612571565b5b6124108a8a8d613d44565b975060008814151561242e57878960008090509d509d509d50612571565b86806001019750507fffffffffffffffffffffffffffffffffffffffffffffffffffffffffffffffff8a6040015114151561249557888a6040015181518110151561247557fe5b9060200190602002015160a001805180919060010160ff1660ff16815250505b61254d565b60207f010000000000000000000000000000000000000000000000000000000000000002857effffffffffffffffffffffffffffffffffffffffffffffffffffffffffffff1916101580156125345750607e7f010000000000000000000000000000000000000000000000000000000000000002857effffffffffffffffffffffffffffffffffffffffffffffffffffffffffffff191611155b1561254c5760018960008090509d509d509d50612571565b5b896000018051809190600101815250506117fc565b6000898b602001519d509d509d505b50505050505050505050509250925092565b606080606060008692508585036040519080825280601f01601f1916602001820160405280156125c25781602001602082028038833980820191505090505b5091508590505b848110156126775782818151811015156125df57fe5b9060200101517f010000000000000000000000000000000000000000000000000000000000000090047f0100000000000000000000000000000000000000000000000000000000000000028287830381518110151561263a57fe5b9060200101907effffffffffffffffffffffffffffffffffffffffffffffffffffffffffffff1916908160001a90535080806001019150506125c9565b8193505050509392505050565b6000816040518082805190602001908083835b6020831015156126bc5780518252602082019150602081019050602083039250612697565b6001836020036101000a038019825116818451168082178552505050505050905001915050604051809103902060001916836040518082805190602001908083835b60208310151561272357805182526020820191506020810190506020830392506126fe565b6001836020036101000a03801982511681845116808217855250505050505090500191505060405180910390206000191614905092915050565b600061276a826000614126565b9050919050565b6000806000809054906101000a900473ffffffffffffffffffffffffffffffffffffffff1673ffffffffffffffffffffffffffffffffffffffff1614806127e1575060006127df6000809054906101000a900473ffffffffffffffffffffffffffffffffffffffff166134a2565b145b156127f2576127f060006134ad565b505b6000809054906101000a900473ffffffffffffffffffffffffffffffffffffffff1673ffffffffffffffffffffffffffffffffffffffff166338cc48316040518163ffffffff167c0100000000000000000000000000000000000000000000000000000000028152600401602060405180830381600087803b15801561287757600080fd5b505af115801561288b573d6000803e3d6000fd5b505050506040513d60208110156128a157600080fd5b810190808051906020019092919050505073ffffffffffffffffffffffffffffffffffffffff16600160009054906101000a900473ffffffffffffffffffffffffffffffffffffffff1673ffffffffffffffffffffffffffffffffffffffff16141515612a09576000809054906101000a900473ffffffffffffffffffffffffffffffffffffffff1673ffffffffffffffffffffffffffffffffffffffff166338cc48316040518163ffffffff167c0100000000000000000000000000000000000000000000000000000000028152600401602060405180830381600087803b15801561298d57600080fd5b505af11580156129a1573d6000803e3d6000fd5b505050506040513d60208110156129b757600080fd5b8101908080519060200190929190505050600160006101000a81548173ffffffffffffffffffffffffffffffffffffffff021916908373ffffffffffffffffffffffffffffffffffffffff1602179055505b600160009054906101000a900473ffffffffffffffffffffffffffffffffffffffff1673ffffffffffffffffffffffffffffffffffffffff1663524f3889836040518263ffffffff167c01000000000000000000000000000000000000000000000000000000000281526004018080602001828103825283818151815260200191508051906020019080838360005b83811015612ab3578082015181840152602081019050612a98565b50505050905090810190601f168015612ae05780820380516001836020036101000a031916815260200191505b5092505050602060405180830381600087803b158015612aff57600080fd5b505af1158015612b13573d6000803e3d6000fd5b505050506040513d6020811015612b2957600080fd5b81019080805190602001909291905050509050919050565b60008060008060009054906101000a900473ffffffffffffffffffffffffffffffffffffffff1673ffffffffffffffffffffffffffffffffffffffff161480612bb357506000612bb16000809054906101000a900473ffffffffffffffffffffffffffffffffffffffff166134a2565b145b15612bc457612bc260006134ad565b505b6000809054906101000a900473ffffffffffffffffffffffffffffffffffffffff1673ffffffffffffffffffffffffffffffffffffffff166338cc48316040518163ffffffff167c0100000000000000000000000000000000000000000000000000000000028152600401602060405180830381600087803b158015612c4957600080fd5b505af1158015612c5d573d6000803e3d6000fd5b505050506040513d6020811015612c7357600080fd5b810190808051906020019092919050505073ffffffffffffffffffffffffffffffffffffffff16600160009054906101000a900473ffffffffffffffffffffffffffffffffffffffff1673ffffffffffffffffffffffffffffffffffffffff16141515612ddb576000809054906101000a900473ffffffffffffffffffffffffffffffffffffffff1673ffffffffffffffffffffffffffffffffffffffff166338cc48316040518163ffffffff167c0100000000000000000000000000000000000000000000000000000000028152600401602060405180830381600087803b158015612d5f57600080fd5b505af1158015612d73573d6000803e3d6000fd5b505050506040513d6020811015612d8957600080fd5b8101908080519060200190929190505050600160006101000a81548173ffffffffffffffffffffffffffffffffffffffff021916908373ffffffffffffffffffffffffffffffffffffffff1602179055505b600160009054906101000a900473ffffffffffffffffffffffffffffffffffffffff1673ffffffffffffffffffffffffffffffffffffffff16632ef3accc86856040518363ffffffff167c01000000000000000000000000000000000000000000000000000000000281526004018080602001838152602001828103825284818151815260200191508051906020019080838360005b83811015612e8c578082015181840152602081019050612e71565b50505050905090810190601f168015612eb95780820380516001836020036101000a031916815260200191505b509350505050602060405180830381600087803b158015612ed957600080fd5b505af1158015612eed573d6000803e3d6000fd5b505050506040513d6020811015612f0357600080fd5b81019080805190602001909291905050509050823a02670de0b6b3a764000001811115612f3657600060010291506130e9565b600160009054906101000a900473ffffffffffffffffffffffffffffffffffffffff1673ffffffffffffffffffffffffffffffffffffffff1663c51be90f8260008888886040518663ffffffff167c0100000000000000000000000000000000000000000000000000000000028152600401808581526020018060200180602001848152602001838103835286818151815260200191508051906020019080838360005b83811015612ff5578082015181840152602081019050612fda565b50505050905090810190601f1680156130225780820380516001836020036101000a031916815260200191505b50838103825285818151815260200191508051906020019080838360005b8381101561305b578082015181840152602081019050613040565b50505050905090810190601f1680156130885780820380516001836020036101000a031916815260200191505b5096505050505050506020604051808303818588803b1580156130aa57600080fd5b505af11580156130be573d6000803e3d6000fd5b50505050506040513d60208110156130d557600080fd5b810190808051906020019092919050505091505b509392505050565b80156132c557600073ffffffffffffffffffffffffffffffffffffffff16600a60009054906101000a900473ffffffffffffffffffffffffffffffffffffffff1673ffffffffffffffffffffffffffffffffffffffff161415156131e3576040517f08c379a00000000000000000000000000000000000000000000000000000000081526004018080602001828103825260228152602001807f486f6d65207465616d2068617320616c7265616479206265656e2063686f736581526020017f6e2e00000000000000000000000000000000000000000000000000000000000081525060400191505060405180910390fd5b33600a60006101000a81548173ffffffffffffffffffffffffffffffffffffffff021916908373ffffffffffffffffffffffffffffffffffffffff1602179055507ffbe28f43fde665d51d1f13122bc58afb312621b4e0e15feff40c19dd19923a8e33604051808273ffffffffffffffffffffffffffffffffffffffff1673ffffffffffffffffffffffffffffffffffffffff16815260200180602001828103825260048152602001807f486f6d65000000000000000000000000000000000000000000000000000000008152506020019250505060405180910390a161348f565b600073ffffffffffffffffffffffffffffffffffffffff16600b60009054906101000a900473ffffffffffffffffffffffffffffffffffffffff1673ffffffffffffffffffffffffffffffffffffffff161415156133b1576040517f08c379a00000000000000000000000000000000000000000000000000000000081526004018080602001828103825260228152602001807f41776179207465616d2068617320616c7265616479206265656e2063686f736581526020017f6e2e00000000000000000000000000000000000000000000000000000000000081525060400191505060405180910390fd5b33600b60006101000a81548173ffffffffffffffffffffffffffffffffffffffff021916908373ffffffffffffffffffffffffffffffffffffffff1602179055507ffbe28f43fde665d51d1f13122bc58afb312621b4e0e15feff40c19dd19923a8e33604051808273ffffffffffffffffffffffffffffffffffffffff1673ffffffffffffffffffffffffffffffffffffffff16815260200180602001828103825260048152602001807f41776179000000000000000000000000000000000000000000000000000000008152506020019250505060405180910390a15b3460086000828254019250508190555050565b6000813b9050919050565b60006134b761441a565b9050919050565b6134c661497d565b60606134d061497d565b6060806040519081016040528060008152602001600081526020017fffffffffffffffffffffffffffffffffffffffffffffffffffffffffffffffff81525091508460405190808252806020026020018201604052801561354b57816020015b61353861499f565b8152602001906001900390816135305790505b5090508181935093505050915091565b6000613565614934565b61356d614934565b835185602001511015156135a557600084600186510381518110151561358f57fe5b9060200190602002015180905092509250613625565b60c060405190810160405280600060048111156135be57fe5b81526020016000815260200160001515815260200160008152602001600015158152602001600060ff1681525090508084866020015181518110151561360057fe5b9060200190602002018190525084602001805180919060010181525050600181925092505b509250929050565b60008060008061363b614934565b87600001519350876000018051809190600101815250505b855188600001511015613d2a5785886000015181518110151561367257fe5b9060200101517f010000000000000000000000000000000000000000000000000000000000000090047f01000000000000000000000000000000000000000000000000000000000000000292507f2200000000000000000000000000000000000000000000000000000000000000837effffffffffffffffffffffffffffffffffffffffffffffffffffffffffffff1916141561374e57613713888861355b565b91509150811515613731578388600001818152505060039450613d39565b613745816003600187018b600001516148a9565b60009450613d39565b605c7f010000000000000000000000000000000000000000000000000000000000000002837effffffffffffffffffffffffffffffffffffffffffffffffffffffffffffff19161480156137a9575085516001896000015101105b15613d1457876000018051809190600101815250507f22000000000000000000000000000000000000000000000000000000000000008689600001518151811015156137f157fe5b9060200101517f010000000000000000000000000000000000000000000000000000000000000090047f0100000000000000000000000000000000000000000000000000000000000000027effffffffffffffffffffffffffffffffffffffffffffffffffffffffffffff1916148061390757507f2f0000000000000000000000000000000000000000000000000000000000000086896000015181518110151561389857fe5b9060200101517f010000000000000000000000000000000000000000000000000000000000000090047f0100000000000000000000000000000000000000000000000000000000000000027effffffffffffffffffffffffffffffffffffffffffffffffffffffffffffff1916145b806139af57507f5c0000000000000000000000000000000000000000000000000000000000000086896000015181518110151561394057fe5b9060200101517f010000000000000000000000000000000000000000000000000000000000000090047f0100000000000000000000000000000000000000000000000000000000000000027effffffffffffffffffffffffffffffffffffffffffffffffffffffffffffff1916145b80613a5757507f66000000000000000000000000000000000000000000000000000000000000008689600001518151811015156139e857fe5b9060200101517f010000000000000000000000000000000000000000000000000000000000000090047f0100000000000000000000000000000000000000000000000000000000000000027effffffffffffffffffffffffffffffffffffffffffffffffffffffffffffff1916145b80613aff57507f7200000000000000000000000000000000000000000000000000000000000000868960000151815181101515613a9057fe5b9060200101517f010000000000000000000000000000000000000000000000000000000000000090047f0100000000000000000000000000000000000000000000000000000000000000027effffffffffffffffffffffffffffffffffffffffffffffffffffffffffffff1916145b80613ba757507f6e00000000000000000000000000000000000000000000000000000000000000868960000151815181101515613b3857fe5b9060200101517f010000000000000000000000000000000000000000000000000000000000000090047f0100000000000000000000000000000000000000000000000000000000000000027effffffffffffffffffffffffffffffffffffffffffffffffffffffffffffff1916145b80613c4f57507f6200000000000000000000000000000000000000000000000000000000000000868960000151815181101515613be057fe5b9060200101517f010000000000000000000000000000000000000000000000000000000000000090047f0100000000000000000000000000000000000000000000000000000000000000027effffffffffffffffffffffffffffffffffffffffffffffffffffffffffffff1916145b80613cf757507f7400000000000000000000000000000000000000000000000000000000000000868960000151815181101515613c8857fe5b9060200101517f010000000000000000000000000000000000000000000000000000000000000090047f0100000000000000000000000000000000000000000000000000000000000000027effffffffffffffffffffffffffffffffffffffffffffffffffffffffffffff1916145b15613d0157613d15565b8388600001818152505060019450613d39565b5b87600001805180919060010181525050613653565b83886000018181525050600294505b505050509392505050565b6000806000806000613d54614934565b60009450886000015193505b8651896000015110156140b157868960000151815181101515613d7f57fe5b9060200101517f010000000000000000000000000000000000000000000000000000000000000090047f01000000000000000000000000000000000000000000000000000000000000000292507f2000000000000000000000000000000000000000000000000000000000000000837effffffffffffffffffffffffffffffffffffffffffffffffffffffffffffff19161480613e5d57507f0900000000000000000000000000000000000000000000000000000000000000837effffffffffffffffffffffffffffffffffffffffffffffffffffffffffffff1916145b80613ea957507f0a00000000000000000000000000000000000000000000000000000000000000837effffffffffffffffffffffffffffffffffffffffffffffffffffffffffffff1916145b80613ef557507f0d00000000000000000000000000000000000000000000000000000000000000837effffffffffffffffffffffffffffffffffffffffffffffffffffffffffffff1916145b80613f4157507f2c00000000000000000000000000000000000000000000000000000000000000837effffffffffffffffffffffffffffffffffffffffffffffffffffffffffffff1916145b80613f905750607d7f010000000000000000000000000000000000000000000000000000000000000002837effffffffffffffffffffffffffffffffffffffffffffffffffffffffffffff1916145b80613fdf5750605d7f010000000000000000000000000000000000000000000000000000000000000002837effffffffffffffffffffffffffffffffffffffffffffffffffffffffffffff1916145b15613fed57600194506140b1565b60207f010000000000000000000000000000000000000000000000000000000000000002837effffffffffffffffffffffffffffffffffffffffffffffffffffffffffffff191610806140845750607f7f010000000000000000000000000000000000000000000000000000000000000002837effffffffffffffffffffffffffffffffffffffffffffffffffffffffffffff1916115b1561409c57838960000181815250506001955061411a565b88600001805180919060010181525050613d60565b8415156140cb57838960000181815250506002955061411a565b6140d5898961355b565b915091508115156140f357838960000181815250506003955061411a565b614104816004868c600001516148a9565b8860000180518091906001900381525050600095505b50505050509392505050565b6000606060008060008693506000925060009150600090505b83518110156143fb5760307f010000000000000000000000000000000000000000000000000000000000000002848281518110151561417a57fe5b9060200101517f010000000000000000000000000000000000000000000000000000000000000090047f0100000000000000000000000000000000000000000000000000000000000000027effffffffffffffffffffffffffffffffffffffffffffffffffffffffffffff191610158015614292575060397f010000000000000000000000000000000000000000000000000000000000000002848281518110151561422257fe5b9060200101517f010000000000000000000000000000000000000000000000000000000000000090047f0100000000000000000000000000000000000000000000000000000000000000027effffffffffffffffffffffffffffffffffffffffffffffffffffffffffffff191611155b156143435781156142b55760008614156142ab576143fb565b8580600190039650505b600a83029250603084828151811015156142cb57fe5b9060200101517f010000000000000000000000000000000000000000000000000000000000000090047f0100000000000000000000000000000000000000000000000000000000000000027f0100000000000000000000000000000000000000000000000000000000000000900403830192506143ee565b602e7f010000000000000000000000000000000000000000000000000000000000000002848281518110151561437557fe5b9060200101517f010000000000000000000000000000000000000000000000000000000000000090047f0100000000000000000000000000000000000000000000000000000000000000027effffffffffffffffffffffffffffffffffffffffffffffffffffffffffffff191614156143ed57600191505b5b808060010191505061413f565b600086111561440d5785600a0a830292505b8294505050505092915050565b60008061443a731d3b2638a7cc9f2cb3d298a3da7a90b67e5506ed6134a2565b11156144db57731d3b2638a7cc9f2cb3d298a3da7a90b67e5506ed6000806101000a81548173ffffffffffffffffffffffffffffffffffffffff021916908373ffffffffffffffffffffffffffffffffffffffff1602179055506144d26040805190810160405280600b81526020017f6574685f6d61696e6e657400000000000000000000000000000000000000000081525061491a565b600190506148a6565b60006144fa73c03a2615d5efaf5f49f60b7bb6583eaec212fdf16134a2565b111561459b5773c03a2615d5efaf5f49f60b7bb6583eaec212fdf16000806101000a81548173ffffffffffffffffffffffffffffffffffffffff021916908373ffffffffffffffffffffffffffffffffffffffff1602179055506145926040805190810160405280600c81526020017f6574685f726f707374656e33000000000000000000000000000000000000000081525061491a565b600190506148a6565b60006145ba73b7a07bcf2ba2f2703b24c0691b5278999c59ac7e6134a2565b111561465b5773b7a07bcf2ba2f2703b24c0691b5278999c59ac7e6000806101000a81548173ffffffffffffffffffffffffffffffffffffffff021916908373ffffffffffffffffffffffffffffffffffffffff1602179055506146526040805190810160405280600981526020017f6574685f6b6f76616e000000000000000000000000000000000000000000000081525061491a565b600190506148a6565b600061467a73146500cfd35b22e4a392fe0adc06de1a1368ed486134a2565b111561471b5773146500cfd35b22e4a392fe0adc06de1a1368ed486000806101000a81548173ffffffffffffffffffffffffffffffffffffffff021916908373ffffffffffffffffffffffffffffffffffffffff1602179055506147126040805190810160405280600b81526020017f6574685f72696e6b65627900000000000000000000000000000000000000000081525061491a565b600190506148a6565b600061473a736f485c8bf6fc43ea212e93bbf8ce046c7f1cb4756134a2565b111561479d57736f485c8bf6fc43ea212e93bbf8ce046c7f1cb4756000806101000a81548173ffffffffffffffffffffffffffffffffffffffff021916908373ffffffffffffffffffffffffffffffffffffffff160217905550600190506148a6565b60006147bc7320e12a1f859b3feae5fb2a0a32c18f5a65555bbf6134a2565b111561481f577320e12a1f859b3feae5fb2a0a32c18f5a65555bbf6000806101000a81548173ffffffffffffffffffffffffffffffffffffffff021916908373ffffffffffffffffffffffffffffffffffffffff160217905550600190506148a6565b600061483e7351efaf4c8b3c9afbd5ab9f4bbc82784ab6ef8faa6134a2565b11156148a1577351efaf4c8b3c9afbd5ab9f4bbc82784ab6ef8faa6000806101000a81548173ffffffffffffffffffffffffffffffffffffffff021916908373ffffffffffffffffffffffffffffffffffffffff160217905550600190506148a6565b600090505b90565b82846000019060048111156148ba57fe5b908160048111156148c757fe5b8152505081846020018181525050600184604001901515908115158152505080846060018181525050600184608001901515908115158152505060008460a0019060ff16908160ff168152505050505050565b80600290805190602001906149309291906149e8565b5050565b60c0604051908101604052806000600481111561494d57fe5b81526020016000815260200160001515815260200160008152602001600015158152602001600060ff1681525090565b6060604051908101604052806000815260200160008152602001600081525090565b60c060405190810160405280600060048111156149b857fe5b81526020016000815260200160001515815260200160008152602001600015158152602001600060ff1681525090565b828054600181600116156101000203166002900490600052602060002090601f016020900481019282601f10614a2957805160ff1916838001178555614a57565b82800160010185558215614a57579182015b82811115614a56578251825591602001919060010190614a3b565b5b509050614a649190614a68565b5090565b614a8a91905b80821115614a86576000816000905550600101614a6e565b5090565b905600a165627a7a723058207acf35243215a1809b9c349915529a4929c10fcd7b525fb3c482c323c69869980029",
  "source": "pragma solidity ^0.4.24;\nimport \"installed_contracts/oraclize-api/contracts/usingOraclize.sol\";\nimport \"installed_contracts/jsmnsol-lib/contracts/JsmnSolLib.sol\";\n\ncontract Tournament is usingOraclize {\n\n  event SubmittedEntry(address entrant, string ipfsHash);\n  event PaidWinner(address winner, uint amount);\n  event ReceivedOraclizeResult(string result);\n  event LogNewOraclizeQuery(string description);\n  event TeamSelected(address picker, string message);\n\n  // This is ~$10 when ETH is ~$450 USD.\n  //uint constant WAGER_AMOUNT_WEI = 25000000000000000;\n\n  address owner;\n  string oracleURL;\n\n  bool public isLocked = false;\n  bool public isCompleted = false;\n  bool public isWinnerPaid = false;\n\n  uint public weiWeigered;\n  uint public wagerAmount;\n\n  address public homePicker;  // chose the home team\n  address public awayPicker;  // chose the away team\n\n  uint public homeTeamScore;  // home team points\n  uint public awayTeamScore;  // away team points\n\n  modifier onlyOwner() {\n    require(msg.sender == owner, \"User is not the contract owner.\");\n    _;\n  }\n\n  modifier hasSufficientFunds() {\n    require(msg.value >= wagerAmount, \"Insufficient funds sent.\");\n    _;\n  }\n\n  modifier winnerUnpaid() {\n    require(!isWinnerPaid, \"Winner has already been paid.\");\n    _;\n  }\n\n  constructor(string _url, bool isHome) payable public {\n    assert(bytes(_url).length > 0);\n    assert(msg.value > 0);\n\n    // READ: When running tests or running locally, deploy ethereum bridge\n    // and set the OAR here\n    OAR = OraclizeAddrResolverI(0x6f485C8BF6fc43eA212E93BBF8ce046C7f1cb475);\n    owner = msg.sender;\n    oracleURL = _url;\n\n    _logEntry(isHome);\n    wagerAmount = msg.value;\n\n  }\n\n  function _logEntry(bool isHome) internal {\n    if (isHome) {\n      require(homePicker == address(0), \"Home team has already been chosen.\");\n      homePicker = msg.sender;\n      emit TeamSelected(msg.sender, \"Home\");\n    } else {\n      require(awayPicker == address(0), \"Away team has already been chosen.\");\n      awayPicker = msg.sender;\n      emit TeamSelected(msg.sender, \"Away\"); \n    }\n    weiWeigered += msg.value;\n  }\n\n  function submitEntry(bool isHome) public payable hasSufficientFunds {\n    require(!isLocked, \"Contract is locked.\");\n    _logEntry(isHome);\n    if ((homePicker != address(0)) && (awayPicker != address(0))) {\n      isLocked = true;\n    }\n  }\n\n  // function withdraw() public {\n  //   require(isCompleted || (!isCompleted && !isLocked), \"Contract is locked or has not yet completed.\");\n  //   uint winnings = address(this).balance;\n  //   msg.sender.transfer(winnings);\n  //   emit PaidWinner(msg.sender, winnings);\n  // }\n\n  function compareStrings (string a, string b) internal pure returns (bool){\n    return keccak256(a) == keccak256(b);\n  }\n\n  function __callback(bytes32 myid, string result) winnerUnpaid public {\n    if (msg.sender != oraclize_cbAddress()) revert();\n\n    emit ReceivedOraclizeResult(result);\n\n    // Parse the oraclize query results\n    // https://medium.com/maibornwolff/a-json-parser-for-solidity-9cc73b4b42\n    uint returnValue;\n    JsmnSolLib.Token[] memory tokens;\n    uint actualNum;\n\n    (returnValue, tokens, actualNum) = JsmnSolLib.parse(result, 5);\n\n    // First, make sure the game is not still being played\n    JsmnSolLib.Token memory token = tokens[1];\n    string memory currentIntermission = JsmnSolLib.getBytes(result, token.start, token.end);\n\n    token = tokens[2];\n    string memory currentQuarter = JsmnSolLib.getBytes(result, token.start, token.end);\n\n    if (!compareStrings(currentIntermission, \"null\") || !compareStrings(currentQuarter, \"null\")) {\n      revert(\"Game is still in progress.\");\n    } else {\n      isCompleted = true;\n    }\n\n    // Second, get the team's scores and make sure they're not empty\n    token = tokens[3];\n    string memory awayScoreStr = JsmnSolLib.getBytes(result, token.start, token.end);\n\n    token = tokens[4];\n    string memory homeScoreStr = JsmnSolLib.getBytes(result, token.start, token.end);\n\n    if(compareStrings(awayScoreStr, \"null\") || compareStrings(homeScoreStr, \"null\")) {\n      revert(\"Game has not started.\");\n    } else {\n      awayTeamScore = parseInt(awayScoreStr);\n      homeTeamScore = parseInt(homeScoreStr);\n    }\n\n    // Transfer the contract's balance to the winner;\n    // divide across both in the event of a tie\n    uint winnings = weiWeigered;\n    if (awayTeamScore > homeTeamScore) {\n      // transfer to the awayPicker\n      awayPicker.transfer(winnings);\n      emit PaidWinner(awayPicker, winnings);\n    } else if (awayTeamScore < homeTeamScore) {\n      // transfer to the homePicker\n      emit PaidWinner(homePicker, this.balance);\n      homePicker.transfer(winnings);\n      emit PaidWinner(homePicker, winnings);\n      emit PaidWinner(homePicker, this.balance);\n    } else {\n      // transfer to both\n      uint payout = winnings / 2;\n      awayPicker.transfer(payout);\n      homePicker.transfer(payout);\n      emit PaidWinner(awayPicker, payout);\n      emit PaidWinner(homePicker, payout);\n    }\n    isWinnerPaid = true;\n  }\n\n  function updateResults() public onlyOwner winnerUnpaid {\n    if (oraclize_getPrice(\"URL\") > address(this).balance) {\n      emit LogNewOraclizeQuery(\"Oraclize query was NOT sent, please add some ETH to cover for the query fee\");\n    } else {\n      emit LogNewOraclizeQuery(\"Oraclize query was sent, standing by for the answer..\");\n      oraclize_query(\"URL\", oracleURL, 150000);\n    }\n  }\n\n  function() public payable {}\n\n}",
  "sourcePath": "/Users/emilebaizel/Documents/workspace/git/Winning/contracts/Tournament.sol",
  "compiler": {
    "name": "solc",
    "version": "0.4.24+commit.e67f0147.Emscripten.clang"
  },
  "schemaVersion": "2.0.0",
  "updatedAt": "2018-08-11T00:36:35.426Z"
}