{
  "contractName": "Tournament",
  "abi": [
    {
      "constant": true,
      "inputs": [],
      "name": "awayPicker",
      "outputs": [
        {
          "name": "",
          "type": "address"
        }
      ],
      "payable": false,
      "stateMutability": "view",
      "type": "function"
    },
    {
      "constant": true,
      "inputs": [],
      "name": "homeTeamScore",
      "outputs": [
        {
          "name": "",
          "type": "uint256"
        }
      ],
      "payable": false,
      "stateMutability": "view",
      "type": "function"
    },
    {
      "constant": true,
      "inputs": [],
      "name": "homePicker",
      "outputs": [
        {
          "name": "",
          "type": "address"
        }
      ],
      "payable": false,
      "stateMutability": "view",
      "type": "function"
    },
    {
      "constant": true,
      "inputs": [],
      "name": "awayTeamScore",
      "outputs": [
        {
          "name": "",
          "type": "uint256"
        }
      ],
      "payable": false,
      "stateMutability": "view",
      "type": "function"
    },
    {
      "inputs": [
        {
          "name": "_url",
          "type": "string"
        }
      ],
      "payable": true,
      "stateMutability": "payable",
      "type": "constructor"
    },
    {
      "payable": true,
      "stateMutability": "payable",
      "type": "fallback"
    },
    {
      "anonymous": false,
      "inputs": [
        {
          "indexed": false,
          "name": "entrant",
          "type": "address"
        },
        {
          "indexed": false,
          "name": "ipfsHash",
          "type": "string"
        }
      ],
      "name": "SubmittedEntry",
      "type": "event"
    },
    {
      "anonymous": false,
      "inputs": [
        {
          "indexed": false,
          "name": "winner",
          "type": "address"
        },
        {
          "indexed": false,
          "name": "amount",
          "type": "uint256"
        }
      ],
      "name": "PaidWinner",
      "type": "event"
    },
    {
      "anonymous": false,
      "inputs": [
        {
          "indexed": false,
          "name": "result",
          "type": "string"
        }
      ],
      "name": "ReceivedOraclizeResult",
      "type": "event"
    },
    {
      "anonymous": false,
      "inputs": [
        {
          "indexed": false,
          "name": "description",
          "type": "string"
        }
      ],
      "name": "LogNewOraclizeQuery",
      "type": "event"
    },
    {
      "constant": false,
      "inputs": [
        {
          "name": "isHome",
          "type": "bool"
        }
      ],
      "name": "submitEntry",
      "outputs": [],
      "payable": true,
      "stateMutability": "payable",
      "type": "function"
    },
    {
      "constant": false,
      "inputs": [],
      "name": "withdraw",
      "outputs": [],
      "payable": false,
      "stateMutability": "nonpayable",
      "type": "function"
    },
    {
      "constant": false,
      "inputs": [
        {
          "name": "myid",
          "type": "bytes32"
        },
        {
          "name": "result",
          "type": "string"
        }
      ],
      "name": "__callback",
      "outputs": [],
      "payable": false,
      "stateMutability": "nonpayable",
      "type": "function"
    },
    {
      "constant": false,
      "inputs": [
        {
          "name": "myid",
          "type": "bytes32"
        },
        {
          "name": "result",
          "type": "string"
        },
        {
          "name": "proof",
          "type": "bytes"
        }
      ],
      "name": "__callback",
      "outputs": [],
      "payable": false,
      "stateMutability": "nonpayable",
      "type": "function"
    },
    {
      "constant": false,
      "inputs": [],
      "name": "updateResults",
      "outputs": [],
      "payable": false,
      "stateMutability": "nonpayable",
      "type": "function"
    }
  ],
  "bytecode": "0x60806040526000600760006101000a81548160ff0219169083151502179055506000600760016101000a81548160ff0219169083151502179055506000600760026101000a81548160ff02191690831515021790555060405162001e2138038062001e2183398101806040528101908080518201929190505050600081511115156200008757fe5b73ccca2d550cca4ee216e08a9b177cd404fa91eb996000806101000a81548173ffffffffffffffffffffffffffffffffffffffff021916908373ffffffffffffffffffffffffffffffffffffffff16021790555033600560006101000a81548173ffffffffffffffffffffffffffffffffffffffff021916908373ffffffffffffffffffffffffffffffffffffffff1602179055508060069080519060200190620001349291906200013c565b5050620001eb565b828054600181600116156101000203166002900490600052602060002090601f016020900481019282601f106200017f57805160ff1916838001178555620001b0565b82800160010185558215620001b0579182015b82811115620001af57825182559160200191906001019062000192565b5b509050620001bf9190620001c3565b5090565b620001e891905b80821115620001e4576000816000905550600101620001ca565b5090565b90565b611c2680620001fb6000396000f300608060405260043610610099576000357c0100000000000000000000000000000000000000000000000000000000900463ffffffff16806327dc297e1461009b57806338bbfa50146101125780633ccfd60b146101cf578063464477f4146101e65780634dae97f2146101fd57806352df11cc146102545780635d48ca111461027f57806389d7d135146102d6578063d1ef532d14610301575b005b3480156100a757600080fd5b506101106004803603810190808035600019169060200190929190803590602001908201803590602001908080601f0160208091040260200160405190810160405280939291908181526020018383808284378201915050505050509192919290505050610323565b005b34801561011e57600080fd5b506101cd6004803603810190808035600019169060200190929190803590602001908201803590602001908080601f0160208091040260200160405190810160405280939291908181526020018383808284378201915050505050509192919290803590602001908201803590602001908080601f0160208091040260200160405190810160405280939291908181526020018383808284378201915050505050509192919290505050610368565b005b3480156101db57600080fd5b506101e461036d565b005b3480156101f257600080fd5b506101fb61048a565b005b34801561020957600080fd5b5061021261070e565b604051808273ffffffffffffffffffffffffffffffffffffffff1673ffffffffffffffffffffffffffffffffffffffff16815260200191505060405180910390f35b34801561026057600080fd5b50610269610734565b6040518082815260200191505060405180910390f35b34801561028b57600080fd5b5061029461073a565b604051808273ffffffffffffffffffffffffffffffffffffffff1673ffffffffffffffffffffffffffffffffffffffff16815260200191505060405180910390f35b3480156102e257600080fd5b506102eb610760565b6040518082815260200191505060405180910390f35b610321600480360381019080803515159060200190929190505050610766565b005b61032b6109b2565b73ffffffffffffffffffffffffffffffffffffffff163373ffffffffffffffffffffffffffffffffffffffff1614151561036457600080fd5b5050565b505050565b6000600760019054906101000a900460ff16806103b05750600760019054906101000a900460ff161580156103af5750600760009054906101000a900460ff16155b5b15156103bb57600080fd5b3073ffffffffffffffffffffffffffffffffffffffff163190503373ffffffffffffffffffffffffffffffffffffffff166108fc829081150290604051600060405180830381858888f1935050505015801561041b573d6000803e3d6000fd5b507fada201a94c8a85cc9fa3e80313179675b0e321eeb0c0a16324761f34e336f9e13382604051808373ffffffffffffffffffffffffffffffffffffffff1673ffffffffffffffffffffffffffffffffffffffff1681526020018281526020019250505060405180910390a150565b3073ffffffffffffffffffffffffffffffffffffffff16316104e06040805190810160405280600381526020017f55524c0000000000000000000000000000000000000000000000000000000000815250610d10565b111561059f577f621c2856e3b87f81235f8ac8a22bbb40a0142961960710d00b2b6c380902b57e60405180806020018281038252604b8152602001807f4f7261636c697a6520717565727920776173204e4f542073656e742c20706c6581526020017f6173652061646420736f6d652045544820746f20636f76657220666f7220746881526020017f652071756572792066656500000000000000000000000000000000000000000081525060600191505060405180910390a161070c565b7f621c2856e3b87f81235f8ac8a22bbb40a0142961960710d00b2b6c380902b57e6040518080602001828103825260358152602001807f4f7261636c697a65207175657279207761732073656e742c207374616e64696e81526020017f6720627920666f722074686520616e737765722e2e000000000000000000000081525060400191505060405180910390a161070a6040805190810160405280600381526020017f55524c000000000000000000000000000000000000000000000000000000000081525060068054600181600116156101000203166002900480601f0160208091040260200160405190810160405280929190818152602001828054600181600116156101000203166002900480156106fc5780601f106106d1576101008083540402835291602001916106fc565b820191906000526020600020905b8154815290600101906020018083116106df57829003601f168201915b5050505050620249f06110e0565b505b565b600860009054906101000a900473ffffffffffffffffffffffffffffffffffffffff1681565b60095481565b600760039054906101000a900473ffffffffffffffffffffffffffffffffffffffff1681565b600a5481565b6658d15e17628000341015151561077c57600080fd5b600760009054906101000a900460ff1615151561079857600080fd5b801561084157600073ffffffffffffffffffffffffffffffffffffffff16600760039054906101000a900473ffffffffffffffffffffffffffffffffffffffff1673ffffffffffffffffffffffffffffffffffffffff161415156107fb57600080fd5b33600760036101000a81548173ffffffffffffffffffffffffffffffffffffffff021916908373ffffffffffffffffffffffffffffffffffffffff1602179055506108e0565b600073ffffffffffffffffffffffffffffffffffffffff16600860009054906101000a900473ffffffffffffffffffffffffffffffffffffffff1673ffffffffffffffffffffffffffffffffffffffff1614151561089e57600080fd5b33600860006101000a81548173ffffffffffffffffffffffffffffffffffffffff021916908373ffffffffffffffffffffffffffffffffffffffff1602179055505b600073ffffffffffffffffffffffffffffffffffffffff16600760039054906101000a900473ffffffffffffffffffffffffffffffffffffffff1673ffffffffffffffffffffffffffffffffffffffff161415801561098e5750600073ffffffffffffffffffffffffffffffffffffffff16600860009054906101000a900473ffffffffffffffffffffffffffffffffffffffff1673ffffffffffffffffffffffffffffffffffffffff1614155b156109af576001600760006101000a81548160ff0219169083151502179055505b50565b6000806000809054906101000a900473ffffffffffffffffffffffffffffffffffffffff1673ffffffffffffffffffffffffffffffffffffffff161480610a2257506000610a206000809054906101000a900473ffffffffffffffffffffffffffffffffffffffff16611690565b145b15610a3357610a31600061169b565b505b6000809054906101000a900473ffffffffffffffffffffffffffffffffffffffff1673ffffffffffffffffffffffffffffffffffffffff166338cc48316040518163ffffffff167c0100000000000000000000000000000000000000000000000000000000028152600401602060405180830381600087803b158015610ab857600080fd5b505af1158015610acc573d6000803e3d6000fd5b505050506040513d6020811015610ae257600080fd5b810190808051906020019092919050505073ffffffffffffffffffffffffffffffffffffffff16600160009054906101000a900473ffffffffffffffffffffffffffffffffffffffff1673ffffffffffffffffffffffffffffffffffffffff16141515610c4a576000809054906101000a900473ffffffffffffffffffffffffffffffffffffffff1673ffffffffffffffffffffffffffffffffffffffff166338cc48316040518163ffffffff167c0100000000000000000000000000000000000000000000000000000000028152600401602060405180830381600087803b158015610bce57600080fd5b505af1158015610be2573d6000803e3d6000fd5b505050506040513d6020811015610bf857600080fd5b8101908080519060200190929190505050600160006101000a81548173ffffffffffffffffffffffffffffffffffffffff021916908373ffffffffffffffffffffffffffffffffffffffff1602179055505b600160009054906101000a900473ffffffffffffffffffffffffffffffffffffffff1673ffffffffffffffffffffffffffffffffffffffff1663c281d19e6040518163ffffffff167c0100000000000000000000000000000000000000000000000000000000028152600401602060405180830381600087803b158015610cd057600080fd5b505af1158015610ce4573d6000803e3d6000fd5b505050506040513d6020811015610cfa57600080fd5b8101908080519060200190929190505050905090565b6000806000809054906101000a900473ffffffffffffffffffffffffffffffffffffffff1673ffffffffffffffffffffffffffffffffffffffff161480610d8057506000610d7e6000809054906101000a900473ffffffffffffffffffffffffffffffffffffffff16611690565b145b15610d9157610d8f600061169b565b505b6000809054906101000a900473ffffffffffffffffffffffffffffffffffffffff1673ffffffffffffffffffffffffffffffffffffffff166338cc48316040518163ffffffff167c0100000000000000000000000000000000000000000000000000000000028152600401602060405180830381600087803b158015610e1657600080fd5b505af1158015610e2a573d6000803e3d6000fd5b505050506040513d6020811015610e4057600080fd5b810190808051906020019092919050505073ffffffffffffffffffffffffffffffffffffffff16600160009054906101000a900473ffffffffffffffffffffffffffffffffffffffff1673ffffffffffffffffffffffffffffffffffffffff16141515610fa8576000809054906101000a900473ffffffffffffffffffffffffffffffffffffffff1673ffffffffffffffffffffffffffffffffffffffff166338cc48316040518163ffffffff167c0100000000000000000000000000000000000000000000000000000000028152600401602060405180830381600087803b158015610f2c57600080fd5b505af1158015610f40573d6000803e3d6000fd5b505050506040513d6020811015610f5657600080fd5b8101908080519060200190929190505050600160006101000a81548173ffffffffffffffffffffffffffffffffffffffff021916908373ffffffffffffffffffffffffffffffffffffffff1602179055505b600160009054906101000a900473ffffffffffffffffffffffffffffffffffffffff1673ffffffffffffffffffffffffffffffffffffffff1663524f3889836040518263ffffffff167c01000000000000000000000000000000000000000000000000000000000281526004018080602001828103825283818151815260200191508051906020019080838360005b83811015611052578082015181840152602081019050611037565b50505050905090810190601f16801561107f5780820380516001836020036101000a031916815260200191505b5092505050602060405180830381600087803b15801561109e57600080fd5b505af11580156110b2573d6000803e3d6000fd5b505050506040513d60208110156110c857600080fd5b81019080805190602001909291905050509050919050565b60008060008060009054906101000a900473ffffffffffffffffffffffffffffffffffffffff1673ffffffffffffffffffffffffffffffffffffffff161480611152575060006111506000809054906101000a900473ffffffffffffffffffffffffffffffffffffffff16611690565b145b1561116357611161600061169b565b505b6000809054906101000a900473ffffffffffffffffffffffffffffffffffffffff1673ffffffffffffffffffffffffffffffffffffffff166338cc48316040518163ffffffff167c0100000000000000000000000000000000000000000000000000000000028152600401602060405180830381600087803b1580156111e857600080fd5b505af11580156111fc573d6000803e3d6000fd5b505050506040513d602081101561121257600080fd5b810190808051906020019092919050505073ffffffffffffffffffffffffffffffffffffffff16600160009054906101000a900473ffffffffffffffffffffffffffffffffffffffff1673ffffffffffffffffffffffffffffffffffffffff1614151561137a576000809054906101000a900473ffffffffffffffffffffffffffffffffffffffff1673ffffffffffffffffffffffffffffffffffffffff166338cc48316040518163ffffffff167c0100000000000000000000000000000000000000000000000000000000028152600401602060405180830381600087803b1580156112fe57600080fd5b505af1158015611312573d6000803e3d6000fd5b505050506040513d602081101561132857600080fd5b8101908080519060200190929190505050600160006101000a81548173ffffffffffffffffffffffffffffffffffffffff021916908373ffffffffffffffffffffffffffffffffffffffff1602179055505b600160009054906101000a900473ffffffffffffffffffffffffffffffffffffffff1673ffffffffffffffffffffffffffffffffffffffff16632ef3accc86856040518363ffffffff167c01000000000000000000000000000000000000000000000000000000000281526004018080602001838152602001828103825284818151815260200191508051906020019080838360005b8381101561142b578082015181840152602081019050611410565b50505050905090810190601f1680156114585780820380516001836020036101000a031916815260200191505b509350505050602060405180830381600087803b15801561147857600080fd5b505af115801561148c573d6000803e3d6000fd5b505050506040513d60208110156114a257600080fd5b81019080805190602001909291905050509050823a02670de0b6b3a7640000018111156114d55760006001029150611688565b600160009054906101000a900473ffffffffffffffffffffffffffffffffffffffff1673ffffffffffffffffffffffffffffffffffffffff1663c51be90f8260008888886040518663ffffffff167c0100000000000000000000000000000000000000000000000000000000028152600401808581526020018060200180602001848152602001838103835286818151815260200191508051906020019080838360005b83811015611594578082015181840152602081019050611579565b50505050905090810190601f1680156115c15780820380516001836020036101000a031916815260200191505b50838103825285818151815260200191508051906020019080838360005b838110156115fa5780820151818401526020810190506115df565b50505050905090810190601f1680156116275780820380516001836020036101000a031916815260200191505b5096505050505050506020604051808303818588803b15801561164957600080fd5b505af115801561165d573d6000803e3d6000fd5b50505050506040513d602081101561167457600080fd5b810190808051906020019092919050505091505b509392505050565b6000813b9050919050565b60006116a56116ac565b9050919050565b6000806116cc731d3b2638a7cc9f2cb3d298a3da7a90b67e5506ed611690565b111561176d57731d3b2638a7cc9f2cb3d298a3da7a90b67e5506ed6000806101000a81548173ffffffffffffffffffffffffffffffffffffffff021916908373ffffffffffffffffffffffffffffffffffffffff1602179055506117646040805190810160405280600b81526020017f6574685f6d61696e6e6574000000000000000000000000000000000000000000815250611b3b565b60019050611b38565b600061178c73c03a2615d5efaf5f49f60b7bb6583eaec212fdf1611690565b111561182d5773c03a2615d5efaf5f49f60b7bb6583eaec212fdf16000806101000a81548173ffffffffffffffffffffffffffffffffffffffff021916908373ffffffffffffffffffffffffffffffffffffffff1602179055506118246040805190810160405280600c81526020017f6574685f726f707374656e330000000000000000000000000000000000000000815250611b3b565b60019050611b38565b600061184c73b7a07bcf2ba2f2703b24c0691b5278999c59ac7e611690565b11156118ed5773b7a07bcf2ba2f2703b24c0691b5278999c59ac7e6000806101000a81548173ffffffffffffffffffffffffffffffffffffffff021916908373ffffffffffffffffffffffffffffffffffffffff1602179055506118e46040805190810160405280600981526020017f6574685f6b6f76616e0000000000000000000000000000000000000000000000815250611b3b565b60019050611b38565b600061190c73146500cfd35b22e4a392fe0adc06de1a1368ed48611690565b11156119ad5773146500cfd35b22e4a392fe0adc06de1a1368ed486000806101000a81548173ffffffffffffffffffffffffffffffffffffffff021916908373ffffffffffffffffffffffffffffffffffffffff1602179055506119a46040805190810160405280600b81526020017f6574685f72696e6b656279000000000000000000000000000000000000000000815250611b3b565b60019050611b38565b60006119cc736f485c8bf6fc43ea212e93bbf8ce046c7f1cb475611690565b1115611a2f57736f485c8bf6fc43ea212e93bbf8ce046c7f1cb4756000806101000a81548173ffffffffffffffffffffffffffffffffffffffff021916908373ffffffffffffffffffffffffffffffffffffffff16021790555060019050611b38565b6000611a4e7320e12a1f859b3feae5fb2a0a32c18f5a65555bbf611690565b1115611ab1577320e12a1f859b3feae5fb2a0a32c18f5a65555bbf6000806101000a81548173ffffffffffffffffffffffffffffffffffffffff021916908373ffffffffffffffffffffffffffffffffffffffff16021790555060019050611b38565b6000611ad07351efaf4c8b3c9afbd5ab9f4bbc82784ab6ef8faa611690565b1115611b33577351efaf4c8b3c9afbd5ab9f4bbc82784ab6ef8faa6000806101000a81548173ffffffffffffffffffffffffffffffffffffffff021916908373ffffffffffffffffffffffffffffffffffffffff16021790555060019050611b38565b600090505b90565b8060029080519060200190611b51929190611b55565b5050565b828054600181600116156101000203166002900490600052602060002090601f016020900481019282601f10611b9657805160ff1916838001178555611bc4565b82800160010185558215611bc4579182015b82811115611bc3578251825591602001919060010190611ba8565b5b509050611bd19190611bd5565b5090565b611bf791905b80821115611bf3576000816000905550600101611bdb565b5090565b905600a165627a7a723058207822b325ec0ffe05406fdf169b5eaadc28222ab83ee34a93a530ce83136635150029",
  "source": "pragma solidity ^0.4.24;\nimport \"installed_contracts/oraclize-api/contracts/usingOraclize.sol\";\n// import \"installed_contracts/jsmnsol-lib/contracts/JsmnSolLib.sol\";\nimport \"jsmnsol-lib/JsmnSolLib.sol\";\n\ncontract Tournament is usingOraclize {\n\n  enum TOURNAMENT_STATE { Created, Completed }\n\n  event SubmittedEntry(address entrant, string ipfsHash);\n  event PaidWinner(address winner, uint amount);\n  event ReceivedOraclizeResult(string result);\n  event LogNewOraclizeQuery(string description);\n\n  // This is ~$10 when ETH is ~$450 USD.\n  uint constant WAGER_AMOUNT_WEI = 25000000000000000;\n\n  address owner;\n  string oracleURL;\n\n  bool isLocked = false;\n  bool isCompleted = false;\n  bool isWinnerPaid = false;\n\n  address public homePicker;  // chose the home team\n  address public awayPicker;  // chose the away team\n\n  uint public homeTeamScore;  // home team points\n  uint public awayTeamScore;  // away team points\n\n  modifier onlyOwner() {\n    require(msg.sender == owner);\n    _;\n  }\n\n  modifier hasSufficientFunds() {\n    require(msg.value >= WAGER_AMOUNT_WEI);\n    _;\n  }\n\n  constructor(string _url) payable public {\n    assert(bytes(_url).length > 0);\n    // When running tests or running locally, set the OAR here\n    OAR = OraclizeAddrResolverI(0xcCcA2D550CcA4eE216e08A9b177cd404Fa91eB99);\n    owner = msg.sender;\n    oracleURL = _url;\n  }\n\n  function submitEntry(bool isHome) public payable hasSufficientFunds {\n    require(!isLocked);\n\n    if (isHome) {\n      require(homePicker == address(0));\n      homePicker = msg.sender;\n    } else {\n      require(awayPicker == address(0));\n      awayPicker = msg.sender;\n    }\n\n    if ((homePicker != address(0)) && (awayPicker != address(0))) {\n      isLocked = true;\n    }\n  }\n\n  function withdraw() public {\n    require(isCompleted || (!isCompleted && !isLocked));\n    uint winnings = address(this).balance;\n    msg.sender.transfer(winnings);\n    emit PaidWinner(msg.sender, winnings);\n  }\n\n  function compareStrings (string a, string b) view internal returns (bool){\n    return keccak256(a) == keccak256(b);\n  }\n\n  function __callback(bytes32 myid, string result) public {\n    if (msg.sender != oraclize_cbAddress()) revert();\n\n    // // Exit if we have already paid out\n    // require(!isWinnerPaid);\n\n    // // Parse the oraclize query results\n    // // https://medium.com/maibornwolff/a-json-parser-for-solidity-9cc73b4b42\n    // uint returnValue;\n    // JsmnSolLib.Token[] memory tokens;\n    // uint actualNum;\n\n    // (returnValue, tokens, actualNum) = JsmnSolLib.parse(result, 4);\n    // emit ReceivedOraclizeResult(result);\n\n    // JsmnSolLib.Token memory t2 = tokens[1];\n    // string memory isCompletedString = JsmnSolLib.getBytes(result, t2.start, t2.end);\n    \n    // // Exit unless the game has completed\n    // // TODO: get JsmnSolLib.getBool() working instead of this jankiness\n    // assert(compareStrings(isCompletedString, \"true\"));\n    // isCompleted = true;\n\n    // JsmnSolLib.Token memory t0 = tokens[2];\n    // string memory awayScoreStr = JsmnSolLib.getBytes(result, t0.start, t0.end);\n    // awayTeamScore = parseInt(awayScoreStr);\n\n    // JsmnSolLib.Token memory t1 = tokens[3];\n    // string memory homeScoreStr = JsmnSolLib.getBytes(result, t1.start, t1.end);\n    // homeTeamScore = parseInt(homeScoreStr);\n\n    // // Transfer the contract's balance to the winner;\n    // // divide across both in the event of a tie\n    // uint winnings = address(this).balance;\n    // if (awayTeamScore > homeTeamScore) {\n    //   // transfer to the awayPicker\n    //   awayPicker.transfer(winnings);\n    //   emit PaidWinner(awayPicker, winnings);\n    // } else if (awayTeamScore < homeTeamScore) {\n    //   // transfer to the homePicker\n    //   homePicker.transfer(winnings);\n    //   emit PaidWinner(homePicker, winnings);\n    // } else {\n    //   // transfer to both\n    //   uint payout = winnings / 2;\n    //   awayPicker.transfer(payout);\n    //   homePicker.transfer(payout);\n    //   emit PaidWinner(awayPicker, payout);\n    //   emit PaidWinner(homePicker, payout);\n    // }\n    // isWinnerPaid = true;\n  }\n\n  function updateResults() public {\n    if (oraclize_getPrice(\"URL\") > this.balance) {\n      emit LogNewOraclizeQuery(\"Oraclize query was NOT sent, please add some ETH to cover for the query fee\");\n    } else {\n      emit LogNewOraclizeQuery(\"Oraclize query was sent, standing by for the answer..\");\n      oraclize_query(\"URL\", oracleURL, 150000);\n    }\n  }\n\n  function() payable {}\n\n}",
  "sourcePath": "/Users/emilebaizel/Documents/workspace/git/Winning/contracts/Tournament.sol",
  "compiler": {
    "name": "solc",
    "version": "0.4.24+commit.e67f0147.Emscripten.clang"
  },
  "schemaVersion": "2.0.0",
  "updatedAt": "2018-08-08T07:08:13.658Z"
}